:100000000C94A9020C94C6020C94C6020C94C6026D
:100010000C94C6020C94C6020C94C6020C94C60240
:100020000C94C6020C94C6020C94C6020C94C60230
:100030000C94C6020C94C6020C94C8020C94C6021E
:100040000C94C6020C94C6020C94C6020C94C60210
:100050000C94C6020C94C6020C94C6020C94C60200
:100060000C94C6020C94C6022E0072633D257520C6
:1000700046525F25730A00665F6D6F756E7420725D
:10008000657475726E65643A20004D6F756E7469A3
:100090006E672046617446732E2E2E0A0053504917
:1000A00020686172647761726520636F6E6669674C
:1000B000757265640A006D6963726F53442043531F
:1000C0002050696E20636F6E666967757265642083
:1000D0002D20423120284439290A0043414E204333
:1000E000532050696E20636F6E6669677572656430
:1000F000202D2042322028443130290A0048656CE6
:100100006C6F20537061726B66756E20526564620D
:100110006F617264210A0043414E2069643D30786A
:10012000255820646174613D307825582030782549
:100130005820307825582030782558203078255898
:1001400020307825582030782558203078255820C0
:100150007274723D25640A002443414E2C25582CAC
:1001600025582C25582C25582C25582C25582C251D
:10017000582C25582C25582C25640A005049442019
:10018000726571756573742073656E742073756321
:100190006365737366756C6C792E2E2E0A00636C22
:1001A0007374203D20307825780054686520706194
:1001B0007468205B25735D2077617320666F756EB0
:1001C000642E204F70656E696E6720657869737460
:1001D000696E672066696C652E2E2E0A005468656C
:1001E0002070617468205B25735D20776173206ED9
:1001F0006F7420666F756E642E204372656174693A
:100200006E67206E657720656E7472792E2E2E0AC9
:1002100000666F6C6C6F775F7061746820737563D4
:100220006365737366756C2E2E2E0A0066696E64A4
:100230005F766F6C756D6520737563636573736648
:10024000756C2E2E2E0A00526573706F6E73653AB0
:1002500020307825580A00526563656976696E67B3
:1002600020726573706F6E73652E2E2E0A005365B3
:100270006E64696E6720646174612E2E2E0A0053CD
:10028000656E64696E67206461746120746F6B656C
:100290006E2E2E2E0A0057616974696E6720666F94
:1002A0007220636172642072656164792E2E2E0A59
:1002B0000041626F757420746F20777269746520D5
:1002C0006D756C7469706C6520626C6F636B733AEA
:1002D000202575203078256C780A0041626F75748E
:1002E00020746F20777269746520612073696E676E
:1002F0006C6520626C6F636B3A203078256C780AED
:100300000041626F757420746F2072657475726E2F
:10031000205245535F5752505254210041626F752D
:100320007420746F2072657475726E205245535F2D
:100330004E4F54524459210041626F757420746FBE
:100340002072657475726E205245535F504152455C
:100350005252210054696D657232203D2025640A95
:1003600000636F6D6D616E6420726573756C743AB5
:1003700020307825780A00646F6E652E0A00536578
:100380006E64696E6720636F6D6D616E642070616D
:10039000636B65742E2E2E0A004D4D437633206319
:1003A0006172642064657465637465642E20436FB4
:1003B0006E74696E75696E6720696E697469616CC7
:1003C000697A6174696F6E2E2E2E0A00534476315D
:1003D00020636172642064657465637465642E20B3
:1003E000436F6E74696E75696E6720696E697469B2
:1003F000616C697A6174696F6E2E2E2E0A00534407
:100400007632206361726420646574656374656428
:100410002E20436F6E74696E75696E6720696E6910
:100420007469616C697A6174696F6E2E2E2E0A0090
:10043000434D44302073656E742E20436F6E746993
:100440006E75696E6720696E697469616C697A613D
:1004500074696F6E2E2E2E0A00506F776572206FB2
:100460006E20636F6D706C6574652E20436F6E74C3
:10047000696E75696E6720696E697469616C697A05
:100480006174696F6E2E2E2E0A00506F7765722090
:100490006F666620636F6D706C6574652E20436FA8
:1004A0006E74696E75696E6720696E697469616CD6
:1004B000697A6174696F6E2E2E2E0A004552524F72
:1004C000523A204E6F7420616C6C2064617461201C
:1004D000776173207772697474656E210A007263A4
:1004E0003D25752046525F25730A004F70656E6981
:1004F0006E673A202573205B25735D0A0072633DA9
:1005000025752046525F25730A004F70656E696E2F
:10051000673A202573205B25735D0A0053504920FC
:1005200064617461207265676973746572203D202F
:10053000307825580A0053504920737461747573DC
:100540002072657175657374203D20307825580AD6
:10055000000011241FBECFEFD8E0DEBFCDBF12E0F8
:10056000A0E0B1E0ECE0F5E502C005900D92A43EFC
:10057000B107D9F727E0A4EEB2E001C01D92AF3772
:10058000B207E1F70E94B6240C94842A0C94000070
:100590001F920F920FB60F9211242F933F934F93F8
:1005A0005F936F937F938F939F93AF93BF93EF93DB
:1005B000FF9380917307909174070196909374074D
:1005C000809373070E941804FF91EF91BF91AF9140
:1005D0009F918F917F916F915F914F913F912F915B
:1005E0000F900FBE0F901F9018952FED37E03093AE
:1005F00069072093680790916A07907E90619093B5
:100600006A0792E090936B0791E090936C07809358
:100610006D0710926E0710926F071092700710927C
:1006200071071092720740E060EE8FE00E940F1990
:1006300088E697E00E94871A882321F08CE791E0F2
:100640000C9492230895FC018281879588278795D1
:10065000880F880B282F082E000C330B3F938F93A5
:1006600082851F928F9381851F928F9380851F9221
:100670008F9387811F928F9386811F928F9385819D
:100680001F928F9384811F928F9383811F928F93E8
:1006900081818F9380818F9388E591E09F938F93E1
:1006A0000E9467228DB79EB746960FB6F8949EBFFC
:1006B0000FBE8DBF0895FC0182818795882787959D
:1006C000880F880B282F082E000C330B3F938F9335
:1006D00082851F928F9381851F928F9380851F92B1
:1006E0008F9387811F928F9386811F928F9385812D
:1006F0001F928F9384811F928F9383811F928F9378
:1007000081818F9380818F9387E191E09F938F9375
:100710000E942B248DB79EB746960FB6F8949EBFC5
:100720000FBE8DBF0895892B21F085B7806185BFED
:10073000089585B78F7EFBCFFC01A281B3819C9188
:1007400021E030E001C0220F6A95EAF7522F509560
:1007500095239C9341FF0EC0A081B1818C9185238C
:100760008C9340FF06C00280F381E02D8081282B0E
:100770002083089542FFFDCFA081B1818C91822B0F
:10078000EFCFDC011496ED91FC91808121E030E007
:1007900001C0220F6A95EAF782230895DC011296C0
:1007A000ED91FC9181E090E001C0880F6A95EAF735
:1007B0009081452B19F0892B80830895809589239A
:1007C000FBCF811102C00C94251D81E00895811199
:1007D00002C00C94531C81E008950F931F93FB01FA
:1007E000BA01A9019801811105C0CF011F910F9194
:1007F0000C94281D84E01F910F9108950F931F936F
:10080000FB01BA01A9019801811105C0CF011F9117
:100810000F910C946C1D84E01F910F910895962FF9
:10082000811104C0BA01892F0C941B1E84E0089525
:100830000C94EC20FC016281738190E080E0982FA1
:10084000872F762F66272181622B982F872F762F6F
:1008500066272081622B0895FC01480F591FDB0198
:1008600081919D91891B990BE417F50719F0BD0142
:100870000097A9F308950F931F93FC019A01AB0110
:1008800022503109410951098789908DA18DB28D7E
:100890000297A109B109281739074A075B0778F4BD
:1008A000A185B2850E94DB2503A514A525A536A543
:1008B000600F711F821F931F1F910F91089560E0B9
:1008C00070E0CB01F9CFDC01ED91FC91309759F04C
:1008D000DF019D014D91413280F04A33D1F74191C2
:1008E0002E173F0719F08FEF9FEF08954033D9F788
:1008F0002F5F3F4FFC013183208390E080E008951B
:100900000F931F93CF93DF93EC018B01892B59F445
:1009100089E030E020E0F80131832083DF91CF913E
:100920001F910F910895E881F981309789F38081B3
:10093000882371F32A813B818581968128173907A5
:1009400039F781810E94E10380FDE2CF288139815E
:1009500080E0E1CF460F571FFB012191BF01FC0151
:100960002193CF0164177507B9F70895FB01428DF4
:10097000538D70E060E0833059F484899589B0E04C
:10098000A0E0DC0199278827482B592B6A2B7B2B69
:10099000CB01BA0108958F929F92AF92BF92EF92CE
:1009A000FF920F931F93CF93DF93EC018B81811103
:1009B0000CC080E0DF91CF911F910F91FF90EF90DD
:1009C000BF90AF909F908F9008957E0143E3E40E17
:1009D000F11C2FA538A949A95AA901E010E0B701D7
:1009E00089810E94FE0381112AC01B820FA518A9CC
:1009F00029A93AA98B8D9C8DAD8DBE8D8BA09CA015
:100A0000ADA0BEA0B901A801481959096A097B091E
:100A10004A015B0188169906AA06BB0650F66A8150
:100A2000623039F6A9019801280F391F4A1F5B1F50
:100A300001E010E0B70189810E94FE03BACF81E096
:100A4000B9CF8F929F92AF92BF92FF920F931F9355
:100A5000CF93DF93EC014A015B018FA598A9A9A967
:100A6000BAA9F12C88159905AA05BB05E1F0CE01BC
:100A70000E94CB04F82E811116C001E010E0A50100
:100A80009401BE016D5C7F4F89810E94ED03882334
:100A900031F0FF24F39488248A94982C54018FA673
:100AA00098AAA9AABAAA8F2DDF91CF911F910F9171
:100AB000FF90BF90AF909F908F900895CF93DF935A
:100AC000EC011B828FEF9FEFDC018FA798ABA9ABE6
:100AD000BAABCE010E942105811128C0FE01EF5C56
:100AE000FD4F8081918185359A4A21F58BA9893EF8
:100AF00029F08B3E09F58DA98039F1F443E050E0EF
:100B000069ED71E0CE0187599F4F0E942C04892B1B
:100B100059F045E050E06DED71E0CE018B579F4FED
:100B20000E942C04892B41F480E001C084E0DF9115
:100B3000CF91089583E0FBCF82E0F9CF2F923F92CF
:100B40004F925F926F927F928F929F92AF92BF92DD
:100B5000CF92DF92EF92FF920F931F93CF93DF9389
:100B6000CDB7DEB7A1970FB6F894DEBF0FBECDBFED
:100B70005B01F42EDB011D921C920E9463046C0148
:100B80008BE0D7FC20C0F601EE0FFF1FE75EFA4FA7
:100B9000008111818CE001151105A9F0F501118387
:100BA0000083E894F0F8D8018C91882329F11196FC
:100BB0008C910E94E10380FD1FC0FF2009F4B7C1A2
:100BC00082FFB5C18AE0A1960FB6F894DEBF0FBED2
:100BD000CDBFDF91CF911F910F91FF90EF90DF90EC
:100BE000CF90BF90AF909F908F907F906F905F90CD
:100BF0004F903F902F900895F8011082C1828C2D64
:100C00000E94E70380FDD6C1FF2011F082FDDACFFC
:100C100040E050E0BA01C8010E945E05823009F050
:100C200094C16801FBE0CF1AFEEFDF0A9E012F5F3F
:100C30003F4F790148013BEC831A3DEF930A57017E
:100C4000D6018C91882309F474C1C60104960E94D0
:100C50001A04F50161937193819391935F01F0E11F
:100C6000CF0ED11CC814D90459F7670120E1C20E78
:100C7000D11CD7014D905D906D907D907D0183E0FA
:100C8000411451046104710409F457C1B301A20174
:100C9000C8010E945E05823008F04FC1F80186ADA0
:100CA00097AD8115924009F058C1F801E75BFF4FFD
:100CB000C080D180F12CE12CC114D10439F4C801D9
:100CC000895A9F4F0E941A046B017C01D8015B96E0
:100CD000CD92DD92ED92FC925E97F801ED5BFF4FB5
:100CE000B081B98BF801B2838B2F8150823008F02C
:100CF00034C1E05CFF4F3081398F832F90E0D80101
:100D00001A969C938E931997009709F426C19C011B
:100D10002150310982239323892B09F01EC1349677
:100D200020803180F80130862782C1018F70992799
:100D3000892B09F012C1EA5BFF4F80809180B12CB2
:100D4000A12C8114910439F4C8018D5A9F4F0E943F
:100D50001A044B015C01F801EF5BFF4F0190F08139
:100D6000E02D309709F4F9C02989A22FB0E0A7013E
:100D700096010E94DB256E8F7F8F88A399A3CF01F8
:100D8000B0E0A0E08A8F9B8FAC8FBD8FC10154E093
:100D9000969587955A95E1F72A8D3B8D4C8D5D8D03
:100DA000280F391F411D511DDA01C9012E8D3F8DBC
:100DB00048A159A1280F391F4A1F5B1F2D8B3E8B5D
:100DC0004F8B588F82169306A406B50608F4C5C04B
:100DD000D501C401821B930BA40BB50B898B9A8B95
:100DE000AB8BBC8B998D892E912CB12CA12C698950
:100DF0007A898B899C89A50194010E94B9258989EA
:100E00009A89AB89BC8988159905AA05BB0508F4A0
:100E1000A4C0263F9FEF390749079FE0590708F014
:100E20009CC0263FAFEF3A074105510508F4C4C006
:100E3000B3E0B98B49015A01F2E08F0E911CA11C5D
:100E4000B11CD80157968D929D92AD92BC925A9743
:100E5000F801478E50A261A272A28A8D9B8DAC8D43
:100E6000BD8D840D951DA61DB71D83A394A3A5A3B9
:100E7000B6A32D893E894F89588D420E531E641E9C
:100E8000751E43A654A665A676A6F989F33009F027
:100E900066C0F801E35AFF4F80819181822993292E
:100EA000892B09F05AC0C801815A9F4F0E941A0429
:100EB000D80197966D937D938D939C939A9742E07A
:100EC000880C991CAA1CBB1C4A95D1F73FEF830ED6
:100ED00031E0931EA11CB11C89E0B694A7949794AD
:100EE00087948A95D1F7C814D904EA04FB04A8F1C1
:100EF0008FEF9FEFDC01F8018787908BA18BB28B7E
:100F000083879487A587B68780E88483298920838F
:100F1000809117059091180501969093180580937C
:100F2000170596838583138A148A158A168A80E0AA
:100F30004ACE60E070E0CB018CCECE14DF0409F025
:100F400098CE843051F481E03ECE8430E1F3412CE0
:100F5000512C3201823008F4A1CE8DE034CE23280A
:100F6000E1F32E8D3F8D48A159A1820F931FA41F3D
:100F7000B51FF80187A390A7A1A7B2A7F989F230FE
:100F800029F4880C991CAA1CBB1CA0CFA3E0B0E0DC
:100F9000A50194010E94DB25969587957795679525
:100FA00021E082229924AA24BB24860E971EA81E23
:100FB000B91E8CCF83E007CEE1E0263FBFE03B07C0
:100FC0004105510508F0E2E0E98B34CF3F924F92A2
:100FD0005F926F927F928F929F92AF92BF92CF92C9
:100FE000DF92EF92FF920F931F93CF93DF9300D086
:100FF00000D000D0CDB7DEB79E838D836A017B0120
:1010000048015901FC018081823009F48AC0833093
:1010100009F4A7C0813009F0DBC08A011695079555
:10102000040F151FC801892F9927869543A154A144
:1010300065A176A1480F591F611D711DCF010E9446
:101040002105382E81114DC08D819E81C3969A83D2
:101050008983F8013196FC83EB831170FC01E00F6A
:10106000F11F882D2601370121E0422255246624F4
:101070007724C0FE07C080818F7090E1899E900127
:101080001124822B808381E0ED81FE81838343A143
:1010900054A165A176A18B819C81892F9927869582
:1010A000480F591F611D711DCF010E942105382E67
:1010B000811117C0EB81FC81F17089819A81E80F61
:1010C000F91F45284628472829F164E0B694A794DB
:1010D000979487946A95D1F7808281E0ED81FE81B3
:1010E0008383832D26960FB6F894DEBF0FBECDBF47
:1010F000DF91CF911F910F91FF90EF90DF90CF90F4
:10110000BF90AF909F908F907F906F905F904F9027
:101110003F9008958081807F992D9F70892E882A25
:10112000DBCF77276F2D5E2D4D2DED81FE8183A1C5
:1011300094A1A5A1B6A1480F591F6A1F7B1FCF011B
:101140000E942105382E8111CCCFF601EE0FFF1F32
:10115000EE7FF1708D819E81E80FF91F14AB03AB18
:10116000BCCFED81FE8183A194A1A5A1B6A137E0FA
:1011700076956795579547953A95D1F7480F591F3A
:101180006A1F7B1FCF010E942105382E8111A9CF34
:10119000FFE0BF228D819E81C396CC0CDD1CCC0C60
:1011A000DD1C2CEFC22221E0D222C80ED91EC601BE
:1011B0000E941A04662777278827907F862A972A15
:1011C000A82AB92AF60180829182A282B38285CFB1
:1011D00082E0382E86CFAF92BF92CF92DF92EF920D
:1011E000FF920F931F93CF93DF938C016A017B01D2
:1011F00082E0C816D104E104F10408F4A7C0F801A4
:101200008789908DA18DB28DC816D906EA06FB0696
:1012100008F09CC08081823009F458C0833009F402
:1012200072C0813009F092C0EA01D695C795C40F0B
:10123000D51FCE01892F9927869543A154A165A179
:1012400076A1480F591F611D711DC8010E9421051B
:10125000882371F06FEF7FEFCB01DF91CF911F916A
:101260000F91FF90EF90DF90CF90BF90AF900895D7
:101270005E01FFEFAF1ABF0AD170C00FD11FCBA91B
:10128000C501892F99278695F80143A154A165A12D
:1012900076A1480F591F611D711DC8010E942105CB
:1012A0008111D8CFF1E0BF220A0D1B1DF80183A9DF
:1012B000782F6C2FC0FE08C0E4E076956795EA951C
:1012C000E1F790E080E0C9CF7F70FBCF77276F2DEB
:1012D0005E2D4D2D83A194A1A5A1B6A1480F591F44
:1012E0006A1F7B1FC8010E9421058111B3CFCC0C5E
:1012F000DD1CE894C0F8F1E0DF220C0D1D1DF801A3
:1013000063A974A9DECF83A194A1A5A1B6A137E0FA
:1013100076956795579547953A95D1F7480F591F98
:101320006A1F7B1FC8010E942105811193CF0D5CAC
:101330001F4FC601880F991F880F991F8C7F9170CE
:10134000800F911F0E941A049F7087CF61E070E0A8
:1013500080E090E082CF4F925F926F927F928F9267
:101360009F92AF92BF92CF92DF92EF92FF920F9334
:101370001F93CF93DF93EC016A017B0108811981F0
:10138000CE86DF86E88AF98A8E809F80A884B98419
:1013900081149104A104B10409F065C0F8018081B1
:1013A000833048F087A190A5A1A5B2A50097A1051B
:1013B000B10509F056C0F80187819085B0E0A0E042
:1013C000B701A601E5E07695679557954795EA95AB
:1013D000D1F7481759076A077B0790F082E0DF9141
:1013E000CF911F910F91FF90EF90DF90CF90BF9022
:1013F000AF909F908F907F906F905F904F900895E7
:10140000F80187A190A5A1A5B2A58E8B9F8BA88F6F
:10141000B98F8A8A9B8AAC8ABD8A4E895F89688D1A
:10142000798D4115510561057105C1F2D701C601DC
:1014300029E0B695A795979587952A95D1F7840FBA
:10144000951FA61FB71F8E8B9F8BA88FB98F0D5C22
:101450001F4FF1E0DF22C00ED11EDB8ECA8E80E06E
:10146000BECF4C015D01F80141845284712C612C86
:1014700039E0440C551C661C771C3A95D1F7B50130
:10148000A401C414D504E604F70440F4C8010E9482
:101490003B046E8B7F8B888F998FBBCF888199811E
:1014A0000E94EB084B015C01FFEF8F169F06AF0611
:1014B000BF06B9F082E088169104A104B10408F4D3
:1014C0008DCFF8018789908DA18DB28D88169906F0
:1014D000AA06BB0608F082CFC418D508E608F708AC
:1014E000CECF81E07CCF0F931F93CF93DF93EC019E
:1014F0000E94CB04982F81115BC08881833009F052
:101500004DC08C81813009F049C0BE016D5C7F4FB8
:101510009E012D5C3D4FCB01FC011192CF01E217E2
:10152000F307D1F785E5FE01EF5CFD4F80838AEA82
:101530003196808382E58BAB8CAB81E68DAB91E4F9
:101540009EAB22E77B972083319620833196908350
:10155000319680838F859889A989BA89319680834D
:101560009183A283B3838B859C85AD85BE8534969C
:1015700080839183A283B3832F8D38A149A15AA17F
:101580002F5F3F4F4F4F5F4F2FA738AB49AB5AAB41
:1015900001E010E089810E94FE031C8250E040E0DF
:1015A00060E089810E940F0491E0811101C090E008
:1015B000892FDF91CF911F910F9108954F925F92E4
:1015C0006F927F928F929F92AF92BF92CF92DF9253
:1015D000EF92FF920F931F93CF93DF938C012A0119
:1015E0003B01FC01C081D1814114510461047104AB
:1015F000B9F48B849C84AD84BE8481149104A104CD
:10160000B10449F08F89988DA98DBA8D88169906F5
:10161000AA06BB06C8F1812C912C5401839434C0D6
:10162000CE010E94EB086B017C01F2E0CF16D104E1
:10163000E104F10408F40FC12FEFC216D206E2064E
:10164000F206B9F4CC24CA94DC2C7601C701B601A9
:10165000DF91CF911F910F91FF90EF90DF90CF908E
:10166000BF90AF909F908F907F906F905F904F90C2
:1016700008958F89988DA98DBA8D53014201C8169E
:10168000D906EA06FB0610F38F859889A989BA89DD
:10169000892B8A2B8B2B21F4C12CD12C7601D6CF10
:1016A00084149504A604B70409F042C075016401CE
:1016B0008FEFC81AD80AE80AF80A8F89988DA98D81
:1016C000BA8DC816D906EA06FB0628F022E0C22E1B
:1016D000D12CE12CF12CB701A601F8018081918178
:1016E0000E94EB08613071058105910509F4B3C0D2
:1016F0006F3FFFEF7F078F079F0709F4A3CF672B8B
:10170000682B692B09F44EC08B859C85AD85BE8501
:1017100082309105A105B10558F04F89588D698D2A
:101720007A8D84179507A607B70710F44C015D0161
:10173000750164012FEFC21AD20AE20AF20A8F89F8
:10174000988DA98DBA8DC816D906EA06FB0660F0F9
:1017500082E088169104A104B10408F49DCF92E0C0
:10176000C92ED12CE12CF12CB701A601F801808102
:1017700091810E94EB086115710581059105B9F011
:10178000613071058105910509F465C06F3F7F4F98
:101790008F4F9F4F09F456CFC814D904EA04FB04B5
:1017A00049F67ACFC114D104E104F10409F222E030
:1017B000C216D104E104F10408F44DC08F89988D5C
:1017C000A98DBA8DC816D906EA06FB0608F043C0F3
:1017D0000FEF1FEF9801B701A601CE010E94E607A7
:1017E000811136C04114510461047104C9F4CB86DF
:1017F000DC86ED86FE868F859889A989BA894F890E
:10180000588D698D7A8D42505109610971094817C7
:1018100059076A077B0720F58C8181608C8316CF7E
:1018200082E04816510461047104A8F08F89988DF4
:10183000A98DBA8D481659066A067B0660F4970191
:101840008601B301A201CE010E94E607882379F246
:10185000813009F4F7CEC12CD12C7601C394F6CE99
:101860000197A109B1098F87988BA98BBA8BD4CF27
:101870002F923F924F925F926F927F928F929F92A0
:10188000AF92BF92CF92DF92EF92FF920F931F938E
:10189000CF93DF9300D000D000D0CDB7DEB71C01CE
:1018A0003B01FC01C684D784E088F188F0E2CF0ECA
:1018B000D11CE11CF11CFC0186899789A08DB18D9A
:1018C0000097A105B10509F441C0C114D104F0E2AB
:1018D000EF06F104D8F5F1010190F081E02DFE83CF
:1018E000ED83B701A601517066277727452B462B5C
:1018F000472B09F0E5C00196A11DB11DF101868BB2
:10190000978BA08FB18F4289538964897589ED8146
:10191000FE814115510561057105D1F487819085DE
:10192000B0E0A0E0B701A60135E076956795579540
:1019300047953A95D1F7481759076A077B0708F486
:10194000BFC0F101168A178A108E118E84E023C061
:10195000818592850197B0E0A0E04601570129E01A
:10196000B694A794979487942A95D1F788219921C2
:10197000AA21BB21892B8A2B8B2B09F0A1C0CF0177
:101980000E94EB084B015C01F2E08F169104A10468
:10199000B104D0F482E026960FB6F894DEBF0FBEF5
:1019A000CDBFDF91CF911F910F91FF90EF90DF900E
:1019B000CF90BF90AF909F908F907F906F905F90EF
:1019C0004F903F902F9008952FEF82169206A20617
:1019D000B20611F481E0DFCFED81FE818789908D21
:1019E000A18DB28D88169906AA06BB0608F458C0C8
:1019F000672809F4A6CFF101428953896489758962
:101A0000C1010E94DE0A4B015C0187E08114910450
:101A1000A104B10409F4BFCFF1E08F169104A10431
:101A2000B10409F4B7CF2FEF82169206A206B206D0
:101A300089F28D819E810E94CB048111CBCFB501AB
:101A4000A4018D819E810E943B042B013C01ED810C
:101A5000FE8147A650AA61AA72AAF396FC83EB8383
:101A60002D813E812D5C3D4FCF01FC011192CF01B4
:101A7000E217F307D1F71A821982ED81FE81818581
:101A8000928529813A812817390750F1ED81FE812D
:101A90008185928529813A812817390709F09ACFE3
:101AA000F101828A938AA48AB58AB501A4018D8145
:101AB0009E810E943B04F101668B778B808F918F12
:101AC000F101C686D786E08AF18A8D819E81C39610
:101AD00096013170280F391F338F228F80E05BCF42
:101AE00001E010E0A301920189819A81280F391F3A
:101AF000411D511D6B817C81ED81FE8181810E94A0
:101B0000FE038111C3CF29813A812F5F3F4F3A8372
:101B10002983B3CF4F925F926F927F928F929F9261
:101B2000AF92BF92CF92DF92EF92FF920F931F93EB
:101B3000CF93DF93EC014B0108811981DB018C917C
:101B40008F3211F08C3579F494014901D9018C91CF
:101B50002F5F3F4F8F32C9F38C35B9F31E821F823E
:101B60001886198609C0F80183899489A589B689E0
:101B70008E839F83A887B987F4018081803208F41F
:101B800046C07E01FCE1EF0EF11C3E0187E2680ECB
:101B9000711C30E2532E680193E3C90ED11CC701BA
:101BA000DC015D92CD016A167B06D1F7F4018081DC
:101BB0008E3209F444C0540190E080E030E020E02F
:101BC00048E050E02F5F3F4FD501ED915D01E132DC
:101BD00078F0EF3219F0EC3509F07FC0D401A20F94
:101BE000B31F4C914F3209F475C04C3509F472C0E3
:101BF000820E931E892B09F486C08C8D853E11F4CC
:101C000085E08C8F80E0E13250F584E028C080E8E8
:101C10008FA340E050E0BA01CE01DF91CF911F9138
:101C20000F91FF90EF90DF90CF90BF90AF909F907B
:101C30008F907F906F905F904F900C94AB098C8F3A
:101C400081818E32E1F58D8F82818E3209F45BC005
:101C500023E030E08F32B1F5820E931E80E28FA335
:101C6000A880B98040E050E0BA01CE010E94AB09E3
:101C7000482E811159C04E895F89688D798DC501C3
:101C80000E942105482E81114FC0EA8DFB8D808175
:101C9000882309F447C083858F738C83838583FDF4
:101CA00008C04BE050E0B701CF010E942C04892B03
:101CB000D9F170E060E0CE010E94380CD9CF22E06B
:101CC00030E0C8CF8C3541F28132E8F4820E931EA9
:101CD00084E2C5CF2F5F3F4F81CFEE3209F45EC063
:101CE0008417950780F4E7FF05C0E058FF0BEB5A17
:101CF000FE4FE08163EE71E0DB01FD91BD01FF234A
:101D000029F0EF13F9CF96E0492E1EC06FE96E0F50
:101D10006A3108F4E052B701680F791FDB01EC93D8
:101D2000019650CF24E0422E8FA1442021F1B4E04F
:101D30004B120AC0982F947085FF18C0992309F49C
:101D40002ECF80E88FA3412C842DDF91CF911F915E
:101D50000F91FF90EF90DF90CF90BF90AF909F904A
:101D60008F907F906F905F904F9008959111ECCF7E
:101D700085E0482EE9CF82FDE7CF8C8184FFF8CF44
:101D80006E857F8571706C0D7D1DF80180810E94CC
:101D9000B6046E837F838887998701CF4B305105C6
:101DA00009F4B1CF88E090E04BE050E00BCFEF9228
:101DB000FF920F931F93CF93DF93EC017B01088178
:101DC000198184E04E895F89688D798D41155105AF
:101DD0006105710519F48823F1F02CC0C8010E9437
:101DE0002105811127C0EA8DFB8D9081992339F15E
:101DF00083858F738C83953EB1F09E32A1F08F3036
:101E000091F08F7121E030E0883011F030E020E077
:101E10002E153F0541F480E0DF91CF911F910F9186
:101E2000FF90EF90089570E060E0CE010E94380CC2
:101E3000882341F21E8A1F8A188E198EEDCF84E006
:101E4000F9CF0F931F93CF93DF93EC010881198192
:101E500040E050E0BA010E94AB09811116C04E89E2
:101E60005F89688D798DC8010E94210581110DC09F
:101E7000EA8DFB8D9081953E59F0992349F061E000
:101E800070E0CE010E94380CE8CF843009F487E07E
:101E9000DF91CF911F910F9108951F93CF93DF93FF
:101EA00000D000D000D0CDB7DEB79C838B837E837B
:101EB0006D83142F7A836983CE0101960E94630497
:101EC00097FD2AC0880F991FFC01E75EFA4F019029
:101ED000F081E02D309709F01082EB81FC81309782
:101EE00009F01082875E9A4FDC01ED93FC9380E04D
:101EF000112341F040E0BE016D5F7F4FCE0105969A
:101F00000E949E0526960FB6F894DEBF0FBECDBF89
:101F1000DF91CF911F9108958BE0F4CF2F923F92E4
:101F20004F925F926F927F928F929F92AF92BF92E9
:101F3000CF92DF92EF92FF920F931F93CF93DF9395
:101F4000CDB7DEB7E3970FB6F894DEBF0FBECDBFB7
:101F50001C017CA76BA7042F19E0892B09F4FFC093
:101F6000842F8F738DA7482FBE01675D7F4FCE01F1
:101F70008B960E949E05182F811197C08CE292E0EB
:101F80000E94922389A59AA59A8389836BA57CA533
:101F9000CE0101960E948A0D182F811107C081E1A0
:101FA00092E00E94922388A587FD16E0802F8C7115
:101FB00009F481C1112309F47CC0143009F075C003
:101FC0008CA58F938BA58F938DED91E09F938F932D
:101FD0000E942B24E980FA80CE0101960E94210FF5
:101FE000182F0F900F900F900F9081115EC04F89A6
:101FF000588D698D7A8DC7010E942105182F811196
:1020000054C08B8D9C8D9C01205E3F4FDC011D9246
:10201000CD01A217B307D1F74BE050E0BE01635EDC
:102020007F4F8B8D9C8D0E94AA0481E0F7018383F2
:10203000FDA5F860FDA78B8C9C8CA9A4BAA4B40163
:10204000D5018C910E94B6046B017C01F4011686C7
:10205000178681E2808B88E4818BEB8DFC8D80E29A
:102060008387EB8DFC8D128E138ED5018C9183307E
:1020700011F4148A158AEB8DFC8D148E158E168E34
:10208000178E81E0F5018383C114D104E104F104CA
:10209000C1F089819A819FA78EA792E0C916D104C9
:1020A000E104F10408F075C012E0D1011D921C9208
:1020B00056C08D81817109F015C102FD81C103FDFA
:1020C000BACFFDA5F3FF02C0F064FDA7E9A4FAA40E
:1020D000F70187A590A9A1A9B2A9F101848F958FD5
:1020E000A68FB78FCB8CDC8CD1A2C0A2B601D70152
:1020F0008C910E94B6044B015C01F10186829782AB
:10210000A086B186C6014C960E941A042B013C01A0
:10211000D1011A964D925D926D927C921D97119607
:10212000FC92EE92F7018581968113969C938E9393
:102130001297FDA51E96FC931E971F961C921F9743
:1021400058961D921D921D921C925B97F101108A68
:10215000118A128A138AFDA5F5FDC6C010E0812FF1
:10216000E3960FB6F894DEBF0FBECDBFDF91CF91DF
:102170001F910F91FF90EF90DF90CF90BF90AF90A5
:102180009F908F907F906F905F904F903F902F9097
:102190000895EEA5FFA58789908DA18DB28DC816F3
:1021A000D906EA06FB0608F07FCFD5019F968D91F0
:1021B0009D910D90BC91A02D88AB99ABAAABBBAB08
:1021C00046015701B501A40189819A810E94EB085B
:1021D0002B013C01411451046104710409F453C002
:1021E000B1E04B1651046104710409F45DCFEFEFC7
:1021F0004E165E066E067E0609F4E4C0F2E08F1607
:102200009104A104B10408F44FCFEEA5FFA587897E
:10221000908DA18DB28D88169906AA06BB0608F08E
:1022200043CF00E010E09801B501A401CF010E9466
:10223000E607182F811139CFEEA5FFA58785908974
:10224000A189B2894789508D618D728D8A019B0168
:10225000025011092109310980179107A207B3071C
:1022600050F40196A11DB11D8787908BA18BB28B75
:102270008481816084835301420184169506A606F9
:10228000B70608F49FCF48A959A96AA97BA989A5CF
:102290009AA50E942105182FE9A5FAA5B1E0CB1A4D
:1022A000D108E108F108C386D486E586F68688233E
:1022B00009F407CFFACE1111F8CE8CA58F938BA518
:1022C0008F938AEA91E09F938F930E942B248D81B4
:1022D0000F900F900F900F9084FD76C001FFF1CE0C
:1022E00080FFEFCE17E0E1CE411451046104710488
:1022F00009F434CF50964D925D926D927C92539733
:10230000F701C184D284F12CE12C39E0CC0CDD1C26
:10231000EE1CFF1C3A95D1F7C414D504E604F7046B
:1023200088F110E0D10154968D929D92AD92BC92AD
:1023300057971111BACED301C2019170AA27BB27BA
:10234000892B8A2B8B2B09F409CFB501A40189A510
:102350009AA50E943B04611571058105910509F458
:10236000A3CE29E076946794579447942A95D1F7A1
:10237000460E571E681E791EF101408E518E628EE8
:10238000738EEDCEB501A401D1018D919C910E9477
:10239000EB084B015C014C185D086E087F08B2E049
:1023A0008B169104A104B10448F0EFEF8E169E063F
:1023B000AE06BE0609F0B0CF11E0B4CF12E0B2CF46
:1023C00018E073CE11E071CE14E06FCE2F923F92E1
:1023D0005F926F927F928F929F92AF92BF92CF92B5
:1023E000DF92EF92FF920F931F93CF93DF9300D072
:1023F000CDB7DEB77C014B015A013901F9011182D9
:102400001082BE016F5F7F4F0E948004582E8111A1
:1024100056C0F7015784511052C0868580FFF8C01E
:1024200082859385A485B5854089518962897389A0
:10243000841B950BA60BB70BA50170E060E0841719
:102440009507A607B70708F45C01A114B104B9F118
:10245000F70180899189A289B389AC01BD015170CE
:1024600066277727452B462B472B09F0AAC0E98121
:10247000FA810185128501501109AC01BD01E9E025
:102480007695679557954795EA95D1F704231523D7
:102490000115110509F042C0F701892B8A2B8B2BFE
:1024A00019F5668177818085918562307105810596
:1024B000910518F582E0F701878772E0572E852D88
:1024C0000F900F90DF91CF911F910F91FF90EF90A0
:1024D000DF90CF90BF90AF909F908F907F906F9044
:1024E0005F903F902F900895448955896689778938
:1024F000808191810E94EB08D8CF6F3FFFEF7F076B
:102500008F079F0731F481E0F701878755245394A3
:10251000D6CFF701648B758B868B978B29803A8099
:10252000F7014489558966897789C1010E943B0476
:10253000611571058105910509F4BCCF9B01AC01C2
:10254000200F311F411D511DA114F2E0BF06A0F163
:102550006501CD2CDD24C694F10181859285B801F9
:102560006C0D7D1D8617970718F46C01C01AD10AEF
:102570008601B401F10181810E94ED038111C3CF75
:10258000DC2CCC24DD0CAC18BD08F30180819181DA
:102590008C0D9D1D918380838C0C9D1CF70180897F
:1025A0009189A289B3898C0D9D1DA11DB11D808BC0
:1025B000918BA28BB38B49CFF701208F318F428F44
:1025C000538FF70180899189917020E032E0281BB8
:1025D000390B65012A153B0508F46901F701408DA7
:1025E000518D628D738D89819A810E94210581119F
:1025F0008ACF69817A816D5C7F4FF70180899189EB
:102600009170680F791FA601C4010E94AA04BBCF74
:1026100087E0582E54CF2F923F924F925F926F9245
:102620007F928F929F92AF92BF92CF92DF92EF9262
:10263000FF920F931F93CF93DF9300D000D00F92A0
:10264000CDB7DEB77C013B015A013D832C83F901F4
:1026500011821082BE016F5F7F4F0E9480048B83C6
:1026600081116DC0F701F785FB83F11168C0F70197
:10267000868581FF6FC180899189A289B389AC0168
:10268000BD014A0D5B1D611D711D481759076A0781
:102690007B0718F45C01A094B094A114B10409F470
:1026A0004AC0F70180899189A289B389AC01BD0133
:1026B000517066277727452B462B472B09F01FC102
:1026C000E981FA810185128501501109AC01BD0132
:1026D00029E076956795579547952A95D1F7042374
:1026E00015230115110509F075C0F701892B8A2BF7
:1026F0008B2BF1F5268037804084518440E050E0F8
:10270000BA012114310441045104B1F15F924F9296
:102710003F922F922EE931E03F932F930E942B247A
:102720000F900F900F900F900F900F902114310485
:102730004104510439F5F7018685806486878B81D1
:102740000F900F900F900F900F90DF91CF911F91EE
:102750000F91FF90EF90DF90CF90BF90AF909F9040
:102760008F907F906F905F904F903F902F90089543
:102770004489558966897789C7010E94DE0A1B0151
:102780002C01C4CFF1E02F1631044104510431F47F
:1027900082E0F7018787F2E0FB83D1CF2FEF22168B
:1027A00032064206520629F481E0F7018787F1E0FC
:1027B000F3CFF701248A358A468A578A8681978122
:1027C000A085B185892B8A2B8B2B21F42682378219
:1027D0004086518689819A81FC0127A430A841A8AE
:1027E00052A8F701408D518D628D738D24163506E8
:1027F0004606570621F40E94CB048111D5CF89806B
:102800009A80F7014489558966897789C4010E94B5
:102810003B04611571058105910509F4B9CF1B01D0
:102820002C01200E311E411C511CA114F2E0BF06E8
:1028300008F447C06501CD2CDD24C694F4018185E0
:10284000928598012C0D3D1D8217930718F46C0199
:10285000C01AD10A8601A2019101B301F40181815C
:102860000E94FE038111A0CFDC2CCC24DD0CAC181F
:10287000BD08EC81FD81808191818C0D9D1D91832E
:1028800080836C0C7D1CF70180899189A289B389B2
:102890008C0D9D1DA11DB11D808B918BA28BB38BC7
:1028A0004285538564857585481759076A077B07F4
:1028B00010F4AC01BD01F701428753876487758727
:1028C000ECCEF701408951896289738982859385AD
:1028D000A485B585481759076A077B0758F0C401D6
:1028E0000E94CB04811160CFE981FA8127A630AA2A
:1028F00041AA52AAF701208E318E428E538EF701E3
:1029000080899189917020E032E0281B390B6501A4
:102910002A153B0508F46901F701408D518D628D40
:10292000738D89819A810E94210581113DCF298172
:102930003A812D5C3F4FF701808991899170A60102
:10294000B301820F931F0E94AA04E981FA8121E05A
:1029500023838DCFF7E020CFCF92DF92EF92FF92CB
:102960000F931F93CF93DF9300D0CDB7DEB78C01C9
:10297000BE016F5F7F4F0E948004811152C0D80159
:102980001E969C911E9796FF4CC05C964D915D9152
:102990006D917C915F9789819A810E9421058111B7
:1029A00040C0D8019096ED91FC919197838580620B
:1029B000838716964D915C9117971696CD90DD9072
:1029C000ED90FC9019972D913C91538F428FD90136
:1029D0002C91233029F4C701AA27BB27848B958B20
:1029E000D8011A964D915D916D917C911D97448F00
:1029F000558F668F778F168A178A81E2808F88E4D9
:102A0000818F128A138A89819A8121E0FC012383B4
:102A10000E94730AD8011E969C911E979F7B1E965A
:102A20009C930F900F90DF91CF911F910F91FF908A
:102A3000EF90DF90CF9008950F931F93CF93DF9384
:102A400000D0CDB7DEB78C010E94AC1481110BC051
:102A5000BE016F5F7F4FC8010E948004811103C0D7
:102A6000F801118210820F900F90DF91CF911F918A
:102A70000F910895EF92FF921F93CF93DF93CDB7FD
:102A8000DEB7AC970FB6F894DEBF0FBECDBF9CA7E4
:102A90008BA740E0BE01675D7F4FCE018B960E9401
:102AA0009E05182F81111AC089A59AA59A8389833A
:102AB0006BA57CA5CE0101960E948A0D182F81116D
:102AC0002BC088A587FF17C0E9A5FAA58F81988537
:102AD000A985BA85838B948BA58BB68B812FAC96F9
:102AE0000FB6F894DEBF0FBECDBFDF91CF911F911F
:102AF000FF90EF9008958D8184FF10C0E9A4FAA49F
:102B00006B8D7C8DF70180810E94B604F701638B89
:102B1000748B858B968BE2CF843001F715E0DECF86
:102B20004F925F926F927F928F929F92AF92BF92DD
:102B3000CF92DF92EF92FF920F931F93CF93DF9389
:102B4000CDB7DEB7C254D1090FB6F894DEBF0FBEC1
:102B5000CDBF23969FAF8EAF23977B01FC011082E0
:102B600040E0BE01615C7F4FCE018F5B9F4F0E94B2
:102B70009E0581112EC02196EEADFFAD2197FA83FF
:102B8000E98383899489A589B6898F839887A987E2
:102B9000BA8787018EE2B82E6E01F9E2CF0ED11C02
:102BA0009FE2A92E4F80588469847A84411451048D
:102BB0006104710431F580E02396EEADFFAD2397FB
:102BC000811106C00E151F0509F0D2C09FE2919336
:102BD0001082CE5BDF4F0FB6F894DEBF0FBECDBFC5
:102BE000DF91CF911F910F91FF90EF90DF90CF90E9
:102BF000BF90AF909F908F907F906F905F904F901D
:102C0000089540E250E060E070E0CE0101960E943D
:102C1000AB098111D1CF4F89588D698D7A8D21965D
:102C20008EAD9FAD21970E9421058111C5CF6B8D7F
:102C30007C8D2196EEADFFAD219780810E94B60478
:102C40006F83788789879A8740E050E0BA01CE0188
:102C500001960E94AB098111AFCF70E060E0CE0118
:102C600001960E94D70E811117C08B8C9C8C2196E7
:102C7000EEADFFAD2197B40180810E94B6046415CA
:102C800075058605970589F070E060E0CE01019634
:102C90000E94380C882309F32396EEADFFAD2397ED
:102CA000843009F089CF82E093CF1AAA8F89988D5A
:102CB000A98DBA8D892B8A2B8B2B09F44EC0F40178
:102CC00090E080E030E020E02F5F3F4F41914032C4
:102CD000B1F0453009F445EE2930310541F4A2E365
:102CE000B0E0AC0FBD1FA80FB91FBC920196A2E3C4
:102CF000B0E0AC0FBD1FA80FB91F4C9301962B304D
:102D0000310511F722E330E02C0F3D1F820F931F96
:102D1000FC011082F90190E080E0219121111BC09B
:102D20009C012D5F3F4F0217130700F1D601A80F3A
:102D3000B91F9801215031092396EEADFFAD2397BD
:102D4000E20FF31FCA16DB0659F480959095080F21
:102D5000191FA08227CF0196E0CF90E080E0E0CF5E
:102D600018964C91189740831197E4CF81E124CFB6
:102D70002396AEADBFAD2397A00FB11F9C91919349
:102D80000F5F1F4F0E151F0598F322CF0F931F9350
:102D9000CF93DF93CDB7DEB7AC970FB6F894DEBF15
:102DA0000FBECDBF9CA78BA7162F042F42E0BE01FC
:102DB000675D7F4FCE018B960E949E0581111EC0DC
:102DC00089A59AA59A8389836BA57CA5CE010196D6
:102DD0000E948A0D811112C088A5807AD1F4EB8DF2
:102DE000FC8D83851827102317721827138789A550
:102DF0009AA521E0FC0123830E94730AAC960FB6CA
:102E0000F894DEBF0FBECDBFDF91CF911F910F9120
:102E1000089586E0F3CF0F931F93CF93DF93CDB741
:102E2000DEB7AC970FB6F894DEBF0FBECDBF9CA740
:102E30008BA78B0142E0BE01675D7F4FCE018B9671
:102E40000E949E05811129C089A59AA59A8389832C
:102E50006BA57CA5CE0101960E948A0D81111DC033
:102E600088A5807A29F5F80124813581C901B0E06F
:102E7000A0E0DC019927882746815781842B952B78
:102E8000EB8DFC8D868B978B318F208F89A59AA532
:102E900021E0FC0123830E94730AAC960FB6F894DC
:102EA000DEBF0FBECDBFDF91CF911F910F9108956F
:102EB00086E0F3CFCF92DF92EF92FF921F93CF93F2
:102EC000DF93CDB7DEB7AC970FB6F894DEBF0FBE79
:102ED000CDBF9CA78BA77B016A0140E0BE01675D67
:102EE0007F4FCE018B960E949E05182F811151C0F5
:102EF000E114F10461F189A59AA59A8389831F825F
:102F0000188619861A8640E050E0BA01CE01019673
:102F10000E94AB09811155C061E070E0CE010196BD
:102F20000E94D70E81114DC0EB8DFC8DCF010B9609
:102F3000D70121912D93E817F907D9F7F7013B96AF
:102F40001082EE15FF0519F082918032C9F3C11489
:102F5000D104F9F089A59AA5FC01478D50A161A182
:102F600072A10E942105182F811113C0E9A5FAA5AD
:102F70008081833001F1843009F187E290E0F3969B
:102F80008E0F9F1F0E941A04F60160837183828353
:102F90009383812FAC960FB6F894DEBF0FBECDBFE2
:102FA000DF91CF911F91FF90EF90DF90CF90089528
:102FB000F7011082CCCF83E490E0E1CF84E690E08B
:102FC000DECF8430A9F3182FE4CFCF92DF92EF92B7
:102FD000FF920F931F93CF93DF93CDB7DEB7C25409
:102FE000D1090FB6F894DEBF0FBECDBF23969FAFB9
:102FF0008EAF239742E0BE01615C7F4FCE018F5BB5
:103000009F4F0E949E05182F81114DC021968EADB5
:103010009FAD21979A83898323968EAD9FAD239789
:103020006C01FC01F12CE12C2191203258F5E114C6
:10303000F10409F458C0970121503109FC01E20F55
:10304000F31F4081403211F119A6FE01B99630E01C
:1030500020E0BF012F5F3F4FD6018D916D0190E0C1
:10306000AC01415651094A31510590F4809705E46D
:1030700011E0D8014D918D01442331F14817190613
:10308000C1F710C02FEFE21AF20ACECF7901CFCFED
:103090008038910528F08B529F4FDC018C9190E095
:1030A000009729F716E0812FCE5BDF4F0FB6F8941B
:1030B000DEBF0FBECDBFDF91CF911F910F91FF906B
:1030C000EF90DF90CF9008952C30310559F3819324
:1030D0002E153F0508F4BECF80E22B30310589F56F
:1030E00089A5853EF9F21F82188619861A8640E066
:1030F00050E0BA01CE0101960E94AB09182F811150
:10310000D2CF61E070E0CE0101960E94D70E81110E
:103110001FC08B8D9C8D4BE050E0BE01675D7F4FE3
:10312000EF28C1F525EEFC01208321968EAD9FADE1
:10313000219721E0DC0113962C930E94730A182F2B
:10314000B2CFFB01E20FF31F80832F5F3F4FC5CF4C
:103150008430A9F7EF2809F4A6CFCE0101960E948A
:10316000210F182F81119FCF8B8D9C8D9C01205E8C
:103170003F4FFC011192CF012E173F07D1F7EB8D86
:10318000FC8D88E083874BE050E0BE01675D7F4F98
:103190008B8D9C8D0E94AA04C8CFCF93DF93D82F2C
:1031A000C62F50E040E062E0809110019091110143
:1031B0000E94CE0382E00E94FB228D2F0E94FB2200
:1031C0008C2F0E94FB2241E050E062E080911001D0
:1031D00090911101DF91CF910C94CE03CF93C82F22
:1031E00050E040E062E080911001909111010E9456
:1031F000CE0383E00E94FB228C2F0E94FB228FEFE4
:103200000E94FB22C82F41E050E062E08091100153
:10321000909111010E94CE038C2FCF9108951F939E
:10322000CF93DF93182FD62FC42F50E040E062E0F9
:1032300080911001909111010E94CE0385E00E94BF
:10324000FB22812F0E94FB228D2F0E94FB228C2FBC
:103250000E94FB2241E050E062E0809110019091D9
:103260001101DF91CF911F910C94CE03CF93C82F02
:1032700050E040E062E080911001909111010E94C5
:10328000CE038C2F0E94FB228FEF0E94FB22C82FBF
:1032900041E050E062E080911001909111010E94A4
:1032A000CE038C2FCF910895CF93DF93C82F42E0A8
:1032B00062E080910001909101010E949C0344E032
:1032C00060E080911001909111010E949C0350E0F8
:1032D00040E062E080911001909111010E94CE03C4
:1032E00080EC0E94FB2241E050E062E080911001FE
:1032F000909111010E94CE032AE62A95F1F700C0B1
:1033000050E040E062E080911001909111010E9434
:10331000CE0382E00E94FB2288E20E94FB2285E02D
:103320000E94FB2283EE0E94FB2280E40E94FB228B
:1033300083E00E94FB2241E050E062E080911001B6
:10334000909111010E94CE038AE20E94EE188C1720
:1033500061F1C5E0D0E041E050E060E08091100113
:10336000909111010E94CE038FEF94E32CE08150E5
:1033700090402040E1F700C0000050E040E060E0F5
:1033800080911001909111010E94CE038FEF94E380
:103390002CE0815090402040E1F700C000002197D0
:1033A000D1F680E0DF91CF91089560E08CE00E943B
:1033B000CD1860E08DE00E94CD1860E680E60E94A6
:1033C000CD1860E680E70E94CD1860E08FE00E9493
:1033D000CD1841E050E060E0809110019091110122
:1033E0000E94CE0381E0DECF62E0809100019091E7
:1033F00001010E94C10391E0811190E0892F08959D
:1034000080EA0E943619982F947581E0943509F06E
:1034100080E00895DF92EF92FF920F931F93CF9376
:10342000DF930F92CDB7DEB78C0180EB0E94361987
:10343000F82E8983898186FD07C0898194E9E92E68
:1034400087FD04C080E052C080E9E82E50E040E0F3
:1034500062E080911001909111010E94CE038E2DA7
:103460000E94FB228FEF0E94FB2228E0829FC00176
:103470001124F801918380838FEF0E94FB228295B3
:1034800086958770F80120813181282B3183208334
:103490008FEF0E94FB228FEF0E94FB228FEF0E9492
:1034A000FB228F70D82E880FF8019281917E982B85
:1034B0009283898183FB90F992830D5F1F4FE12CEA
:1034C000ED101DC050E040E062E08091100190914D
:1034D00011010E94CE03898140E061E086FF62E035
:1034E0008CE20E940F198F2D87708F5F0F90DF91F4
:1034F000CF911F910F91FF90EF90DF9008958FEF84
:103500000E94FB22F80181938F01E394D9CFDF92CF
:10351000EF92FF920F931F93CF93DF930F92CDB74C
:10352000DEB77C0180EA0E943619898350E040E0D2
:1035300060E080911001909111010E94CE03898179
:1035400082FF09C0898184FF66C0898114E086FFFB
:1035500003C010E056C010E050E040E062E080910F
:103560001001909111010E94CE03812F80640E946E
:10357000FB22F7018081918123E0969587952A951A
:10358000E1F70E94FB22F70180818295880F807EFF
:103590000E94FB2280E00E94FB2280E00E94FB222E
:1035A000F7018281082F06950F7080FF36C0802FAB
:1035B00080640E94FB2241E050E062E080911001B3
:1035C000909111010E94CE03F5E0FA95F1F7000009
:1035D00050E040E062E080911001909111010E9462
:1035E000CE03111101C011E0812F80680E94FB22DF
:1035F00041E050E062E080911001909111010E9441
:10360000CE03812F0F90DF91CF911F910F91FF90EB
:10361000EF90DF90089512E09FCF802F0E94FB2251
:10362000F3E0EF0EF11CD12CD01629F2F7018191B5
:103630007F010E94FB22D394F7CF299A85E50C9451
:10364000FB220F931F93CF936AE070E00E94A525A1
:1036500060931C0504E513E08FEF0E94FB22C82F46
:1036600080911C051F928F931F930F930E942B2410
:103670000F900F900F900F90CF3F21F080911C057D
:103680008111EACF81E090E0CF3F11F090E080E03F
:10369000CF911F910F910895CF93DF9329988AEAD4
:1036A0000E94FB2280E293E00E94211BEC01892B07
:1036B00031F40E941D1BCE01DF91CF910895C1E02E
:1036C000D0E0F9CFEF92FF920F931F93CF93DF9348
:1036D000C82F142F052FF62EE72E87FF0BC040E0D2
:1036E00050E0BA0187E30E94621BD82F823008F0B5
:1036F00047C0CF77CC3009F04BC08EE793E09F9363
:103700008F930E942B248C2F80640E94FB228E2D8D
:103710000E94FB228F2D0E94FB22802F0E94FB2201
:10372000812F0E94FB220F900F9085E9CC2321F07E
:1037300087E8C83009F081E00E94FB2287E793E028
:103740009F938F930E942B240F900F90CC3019F4ED
:103750008FEF0E94FB22CAE08FEF0E94FB22D82F3E
:1037600087FF02C0C150C1F71F92DF9381E693E04B
:103770009F938F930E942B240F900F900F900F9088
:103780008D2FDF91CF911F910F91FF90EF900895B2
:103790000E941D1B0E944C1B892B09F0AECFDFEF4E
:1037A000EFCF0F931F93CF93DF93EC018B0184E155
:1037B00080931D058FEF0E94FB228F3F39F480918B
:1037C0001D058111F7CF90E080E00EC08E3FD9F744
:1037D000B801CE010E94E5228FEF0E94FB228FEFFD
:1037E0000E94FB2281E090E0DF91CF911F910F9129
:1037F00008950F931F93CF938C01C62F86E992E013
:103800009F938F930E942B2484EF91E00E94211BB1
:103810000F900F90009709F442C08FE792E09F93BA
:103820008F930E942B248C2F0E94FB220F900F90CD
:1038300081E090E0CD3F99F18EE692E09F938F93E7
:103840000E942B2460E072E0C8010E94D2228FEF18
:103850000E94FB228FEF0E94FB2287E592E09F935C
:103860008F930E942B248FEF0E94FB22C82F1F9260
:103870008F9387E492E09F938F930E942B24CF71C4
:1038800031E020E08DB79EB708960FB6F8949EBF42
:103890000FBE8DBFC53009F030E0832F922FCF913E
:1038A0001F910F910895CF92DF92EF92FF920F93A5
:1038B0001F93CF93DF9300D000D0CDB7DEB78AE05F
:1038C00080931D0580911D058111FCCF8091180109
:1038D00081FF0FC0809118010F900F900F900F90F3
:1038E000DF91CF911F910F91FF90EF90DF90CF90DC
:1038F00008958AE894E00E9492231AE08FEF0E94D4
:10390000FB221150D9F789E594E00E94922329986F
:1039100040E050E0BA0180E00E94621B082F813035
:1039200009F07CC080E394E00E94922384E68093B7
:103930001D054AEA51E060E070E088E00E94621BE9
:10394000813009F045C08EEF93E00E9492238E01F2
:103950000F5F1F4F6E0185E0C80ED11C78018FEFFD
:103960000E94FB22F70181937F01EC15FD05B9F759
:103970008B81813009F052C08C818A3A09F04EC0A7
:1039800080911D05882349F040E050E060E070E43C
:1039900089EA0E94621B8111F3CF80911D05882363
:1039A000E9F140E050E0BA018AE30E94621B811114
:1039B00035C08FEF0E94FB22F80181938F01EC1537
:1039C000FD05B9F7898114E086FF29C01CE027C0F6
:1039D00040E050E0BA0189EA0E94621B823078F52B
:1039E0008CEC93E00E94922312E009EA80911D057D
:1039F000882341F040E050E0BA01802F0E94621B12
:103A00008111F4CF80911D05882341F040E052E000
:103A100060E070E080E10E94621B811110E0109371
:103A20001B050E941D1B112309F454CF809118011E
:103A30008E7F8093180184E00E94C3224BCF89E9D6
:103A400093E00E94922311E0D1CF80911801089554
:103A5000EF92FF921F93CF93DF937C01E90184E003
:103A6000209791F18091180180FD34C080911B0551
:103A700083FD07C089E0440F551F661F771F8A9595
:103A8000D1F711E1C230D10508F012E1812F0E9477
:103A9000621B811113C060E072E0C7010E94D11B5C
:103AA000892B21F08EEFF81A2197A9F7123131F402
:103AB00040E050E0BA018CE00E94621B0E941D1B96
:103AC00081E0CD2B09F480E0DF91CF911F91FF9031
:103AD000EF90089583E0F8CFCF92DF92EF92FF92BC
:103AE0000F931F93CF93DF938C016A017B01E90150
:103AF000209791F488E393E09F938F930E942B2467
:103B00000F900F9084E0DF91CF911F910F91FF9064
:103B1000EF90DF90CF9008958091180180FF0AC048
:103B20008CE193E09F938F930E942B240F900F9032
:103B300083E0E9CF8091180182FF0AC081E093E021
:103B40009F938F930E942B240F900F9082E0DBCFE6
:103B500080911B0583FD07C089E0CC0CDD1CEE1CA9
:103B6000FF1C8A95D1F7C130D10551F5FF92EF9234
:103B7000DF92CF928BED92E09F938F930E942B2444
:103B8000B701A60188E10E94621B0F900F900F9071
:103B90000F900F900F9081114BC06EEFC8010E94E3
:103BA000F91B31E020E0892B09F030E0C32FD22F40
:103BB0000E941D1B81E0CD2B09F0A5CF80E0A3CF93
:103BC000FF92EF92DF92CF92DF93CF9381EB92E05F
:103BD0009F938F930E942B2480911B0586702DB795
:103BE0003EB7285F3F4F0FB6F8943EBF0FBE2DBFC4
:103BF000882331F0AE0170E060E087E90E94621B2B
:103C0000B701A60189E10E94621B8111D1CF6CEF3F
:103C1000C8010E94F91B892B19F01E5F2197B9F783
:103C20006DEF90E080E00E94F91B892B09F0C0CF76
:103C3000C1E0D0E0BDCFCF92DF92EF92FF920F9321
:103C40001F93CF93DF93CDB7DEB760970FB6F8948D
:103C5000DEBF0FBECDBF8B019091180190FDBAC29F
:103C6000833309F4D6C150F5833009F406C1B8F4A2
:103C7000882309F489C0813009F48DC014E0812FB4
:103C800060960FB6F894DEBF0FBECDBFDF91CF9127
:103C90001F910F91FF90EF90DF90CF9008958730A4
:103CA00009F4D8C1823309F4AFC1843039F7809167
:103CB0001B05867009F05DC111E0E1CF863309F480
:103CC000BBC1D8F4843309F4B2C18533B9F640E0FE
:103CD00050E0BA018AE30E94621B811164C078013E
:103CE000F4E0EF0EF11C8FEF0E94FB22F8018193AC
:103CF0008F01EE15FF05B9F78EC0883309F40FC2A6
:103D000008F4AEC1893309F0B9CFFB01408150E01E
:103D100070E060E08CE1440F551F661F771F8A95A5
:103D2000D1F7828190E0B0E0A0E0482B592B6A2BBC
:103D30007B2B83819481A581B68129E0880F991F0F
:103D4000AA1FBB1F2A95D1F7842B952BA62BB72B27
:103D5000AC01BD01746881E30E94621B811123C024
:103D60008FEF0E94FB228EEF0E94FB22F8018181DF
:103D70000E94FB2201E012E08FEF0E94FB22015023
:103D80001109D1F78FEF13C20E944C1B11E0892B50
:103D900009F442C040C040E050E0BA0189E00E940E
:103DA000621B882311F011E037C060E170E0CE01A2
:103DB00001960E94D11B892BB1F39981929596951A
:103DC0009695937089856A854885913041F5282FAD
:103DD00030E0322F2227260F311D842F90E0B0E0F3
:103DE000A0E0DC019927882788279927AF73BB2794
:103DF0000196A11DB11D820F931FA11DB11D7AE077
:103E0000880F991FAA1FBB1F7A95D1F7F8018083ED
:103E10009183A283B38310E00E941D1B30CF829553
:103E2000869586958370F4E04F9FA0011124840F3E
:103E3000952F911D01964F8150E0542F4427550F27
:103E4000550F44275C70840F951FB0E0A0E03E81C1
:103E50003F702B85221F2227221F320F3E5F262F05
:103E6000220F2670230F2950330B04C0880F991F8F
:103E7000AA1FBB1F2A95D2F7C9CF80911B0540E02E
:103E800050E0BA0182FF21C08DE80E94621B8111BF
:103E90008ACF8FEF0E94FB2260E170E0CE01019695
:103EA0000E94D11B892B09F47ECFB0E3FB2E8FEF4C
:103EB0000E94FB22FA94F110FACF2B8522952F70E5
:103EC00080E190E0A0E0B0E0D0CF89E00E94621BEA
:103ED000811169CF60E170E0CE0101960E94D11B93
:103EE000892B09F460CF8B8590E02C8530911B05E0
:103EF00031FF1BC0880F991F8E779927221F222719
:103F0000221F30E02F5F3F4F820F931F2E85229597
:103F10002695269523702150330B02C0880F991FD8
:103F20002A95E2F7B0E0A0E071CFF8E02F9FA00162
:103F3000112448715527229526952770240F352F77
:103F4000311D2F5F3F4F95958795959587958F717B
:103F500099270196289FA001299F500D389F500D49
:103F6000112470E060E0F801408351836283738321
:103F700052CFBE016F5F7F4F83E30E941B1E8111F2
:103F80009BCE898182958695869583709B8590745A
:103F9000892B09F491CEF8014081518162817381AE
:103FA000C480D580E680F78080911B0583FD0EC01C
:103FB00039E0440F551F661F771F3A95D1F7E9E0A6
:103FC000CC0CDD1CEE1CFF1CEA95D1F780E20E94B0
:103FD000621B811171CEB701A60181E20E94621BB2
:103FE00081116ACE40E050E0BA0186E20E94621B75
:103FF000811162CE80E395E70E94211B11E0892B9D
:1040000009F43DCE10E03BCE80911B05FB0180837F
:10401000F9CF40E050E0BA0189E00E94621B60E104
:1040200070E08111C0CEC8010E94D11BAFCE40E02C
:1040300050E0BA018AE0F1CF40E050E0BA018DE8EB
:104040000E94621B8111AFCE8FEF0E94FB2260E4C1
:1040500070E0E9CF80911801816080931801D2CF80
:10406000FB014381548165817681A9E0440F551F8E
:10407000661F771FAA95D1F7818192810197917070
:10408000B0E0A0E0482B592B6A2B7B2B808190E07D
:10409000B0E0A0E02CE1880F991FAA1FBB1F2A9552
:1040A000D1F7842B952BA62BB72BAC01BD017068E3
:1040B00080E30E94621B811176CE84E680931D0509
:1040C0008FEF0E94FB228F3F29F480911D05811103
:1040D000F7CF69CE8E3F09F066CEF801E780F08415
:1040E000C180D280CE0CDF1CEC14FD0489F4F801F1
:1040F0008181928102E012E0081B190B0115110564
:1041000009F489CE8FEF0E94FB2201501109F6CFEE
:104110008FEF0E94FB22F70181937F01E5CFFB0126
:10412000438154816581768139E0440F551F661FB4
:10413000771F3A95D1F78181928101979170B0E014
:10414000A0E0482B592B6A2B7B2B808190E0B0E0BC
:10415000A0E0ECE1880F991FAA1FBB1FEA95D1F7D9
:10416000842B952BA62BB72BAC01BD01706881E386
:104170000E94621B811117CE8FEF0E94FB228EEFEF
:104180000E94FB22F801E780F084C180D280CE0C2F
:10419000DF1CEC14FD0499F4F8018181928102E0A6
:1041A00012E0081B190B8FEF0115110571F40E9425
:1041B000FB228F7111E0853009F02ECE2CCEF70155
:1041C00081917F010E94FB22E4CF0E94FB220150DB
:1041D0001109E9CF13E053CD80911D05882319F013
:1041E000815080931D0580911C05882319F0815012
:1041F00080931C0580911801897F80931801089590
:104200000F931F93CF93DF93CDB7DEB72D970FB6E4
:10421000F894DEBF0FBECDBF809124079091250793
:10422000019690932507809324079F938F9386E2AE
:1042300097E09F938F9382EF91E09F938F938E01EE
:104240000F5F1F4F1F930F930E9451266BEF71E07A
:104250008EE297E00E94002665E072E08EE297E031
:104260000E94F525B8018EE297E00E94F5250FB671
:10427000F894DEBF0FBECDBF67E072E08EE297E03C
:104280002D960FB6F894DEBF0FBECDBFDF91CF9154
:104290001F910F910C94F525CF93BC0186E297E016
:1042A0000E9400260E9400214AE06EE277E084E44A
:1042B00097E00E948E0FC82F8FE092E0C11102C0DC
:1042C0008CE092E09F938F938EE297E09F938F9381
:1042D0008AE095E09F938F930E942B24EC2FF0E0CF
:1042E000EE0FFF1FE75EFE4F81818F9380818F93DA
:1042F0001F92CF938DEF94E09F938F930E942B2476
:1043000084E295E0909323058093220510921E0588
:1043100010921F05109220051092210581E090E077
:104320002DB73EB7245F3F4F0FB6F8943EBF0FBE88
:104330002DBFC11102C090E080E0CF910895CF93CE
:1043400080911E0590911F05A0912005B091210537
:10435000C0E00197A041B105F0F10E94002146E0C4
:104360006EE277E084E497E00E948E0FC82F8FE022
:1043700092E0C11102C08CE092E09F938F938EE295
:1043800097E09F938F938BEE94E09F938F930E947F
:104390002B24EC2FF0E0EE0FFF1FE75EFE4F818134
:1043A0008F9380818F931F92CF938EED94E09F9394
:1043B0008F930E942B2410921E0510921F051092BD
:1043C0002005109221058DB79EB70C960FB6F89474
:1043D0009EBF0FBE8DBF81E090E0C11102C090E092
:1043E00080E0CF9108950F931F93CF93DF9300D078
:1043F000CDB7DEB700912205109123050452154078
:104400009E012F5F3F4FA80164E275E084E497E0CE
:104410000E940B1340911E0550911F0560912005CD
:1044200070912105480F511D611D711D40931E059E
:1044300050931F05609320057093210589819A810F
:104440008017910740F48CEB94E09F938F930E9428
:104450002B240F900F9084E295E090932305809396
:1044600022050E949F210F900F90DF91CF911F9105
:104470000F9108958091240581110E94F32184E415
:1044800097E00E941C1521E030E0811102C030E06D
:1044900020E0C9010895AB01BC01809122059091F3
:1044A00023050E9474262091220530912305820F56
:1044B000931F909323058093220524E237E0281B65
:1044C000390B2832310514F40C94F3210895CF935D
:1044D000DF93CDB7DEB7BE016B5F7F4FFB018191EC
:1044E0009191BF010E944B22DF91CF910895CF930C
:1044F000DF93C42FC370C62B892B09F042C0C06460
:10450000D42FD695D69550E040E063E0809110011D
:10451000909111010E94CE0350E040E064E0809150
:104520001001909111010E94CE0350E040E065E03F
:1045300080911001909111010E94CE03249884B1C2
:10454000886284B9CCBDDDBD8DB51F928F9386E3A3
:1045500095E09F938F930E942B248EB51F928F938B
:104560008CE195E09F938F930E942B248DB79EB78B
:1045700008960FB6F8949EBF0FBE8DBFDF91CF9106
:104580000895C065BDCF9DB5843040F091602CB5D5
:1045900083702C7F822B8CBD9DBD08959E7FF7CFAD
:1045A0001CBC0895FC0120812EBD0DB407FEFDCF7B
:1045B000FC0121812EBD0DB407FEFDCF62507109B3
:1045C00002966115710571F708952FEF2EBD0DB498
:1045D00007FEFDCF3EB5FC0130832EBD0DB407FEB6
:1045E000FDCF3EB5FC013183625071090296611521
:1045F000710561F708958EBD0DB407FEFDCF8EB530
:1046000008958F929F92AF92BF92CF92DF92EF92D6
:10461000FF920F931F93CF93DF937C016B015A019D
:1046200010E088249924801A910AD0E0C0E0020F9B
:10463000131FC017D1076CF0DF91CF911F910F911D
:10464000FF90EF90DF90CF90BF90AF909F908F90B2
:10465000089585E5CC15DD0524F4F701EC0FFD1F69
:1046600080810E94FB2297FC04C0F501E80DF91D32
:10467000808321968FEF881A980ADBCF9B01AC01CB
:10468000211581EE380741055105D9F082E080936C
:10469000C00060E874E88EE190E00E94B9252150E6
:1046A00031093093C5002093C40088E18093C10094
:1046B00086E08093C2006DE773E28DE693E20C948E
:1046C00007261092C00020E130E0EBCF9091C000AF
:1046D00095FFFCCF8093C60008950E94662390E06A
:1046E00080E008958091C000807808958091C00096
:1046F00087FFFCCF8091C60008950E94762390E04A
:1047000008958A3019F48DE001D08AE0FF93EF9389
:10471000E0916607F0916707309709F00995EF91EE
:10472000FF910895FC018591803011F0EADFFBCF05
:104730000895FF27E0E230E247FF0CC0419597FF64
:1047400009C0EDE26095709580959095611D711D91
:10475000811D911D27FF02C0219530E350E2AA2759
:10476000660F771F881F991FAA1FA41710F0A41B9C
:1047700063955A95A9F7AA3008F0A95FA05DAF9399
:10478000F395611571058105910541F7ED3211F43D
:10479000EF93F395F21718F43F93F395FBCF8F91B6
:1047A000B0DFFA95E1F70895E991F99185918030AC
:1047B00021F0853219F0A5DFF9CF089520E0E894C3
:1047C00055915532C1F3503311F4689455915A33D1
:1047D00048F4505390F3220F022E220F220F200D87
:1047E000250FF4CF0EF4219589919991533619F341
:1047F000533729F1533559F1BC0188279927E8949B
:104800005C3621F48991999168945591543639F424
:1048100046EF7EF077FF0DC08FEF9FEF0AC0553750
:104820004AE039F0583540E121F0523642E009F0D3
:104830000895FF93EF937DDFEF91FF91B7CFFF9343
:10484000EF93FC0181918030B9F35BDFFBCFFF93E5
:10485000EF9368DFF1CFDF93CF93CDB7DEB7259627
:10486000A3DFCF91DF910895F70181937F01089530
:10487000DF93CF93CDB7DEB72596E0916607F09131
:104880006707EF93FF93E4E3F4E2E0936607F093A6
:104890006707FF92EF92E990F99086DFF7011082A7
:1048A000EF90FF90FF91EF91E0936607F093670719
:1048B000CF91DF9108950B01DC01ED91FD9122274D
:1048C000332744275527E8949AE001C03196608148
:1048D0006032E1F3A8F16D3211F46894F7CF6A33D6
:1048E00078F5603368F171F498E031966081613257
:1048F00048F1623611F492E003C0683719F490E190
:10490000319660816132F0F0613608F06052605398
:10491000B8F06A3018F067506A3090F0691780F488
:1049200081E2771B08F4790F76955795479537956F
:1049300027958A95B9F7260F381F481F581FE0CFD3
:1049400080E001C081E04EF46627209530954095C7
:104950005095261F361F461F561FFE93EE93D0011B
:104960002D933D934D935D93112408958BE987BD5D
:1049700082E084BD95E095BD80936E00789486E6D4
:1049800093E2909367078093660760E071EE80E0A2
:1049900090E00E943E238DEF90E09F938F930E94C2
:1049A0002B242FEF39E688E1215030408040E1F799
:1049B00000C0000043E061E080910801909109018E
:1049C0000E949C0343E062E08091080190910901FC
:1049D0000E949C0343E063E08091080190910901EB
:1049E0000E949C0343E064E08091080190910901DA
:1049F0000E949C0343E065E08091080190910901C9
:104A00000E949C0345E062E082E191E00E949C03E9
:104A10008BED90E09F938F930E942B2445E061E003
:104A200082E191E00E949C0386EB90E09F938F933C
:104A30000E942B2442E060E081E090E00E94772217
:104A40008DE990E09F938F930E942B2494E525E8B5
:104A500035E481E09150204030408040D9F700C0DB
:104A600000C000008AE890E09F938F930E942B245F
:104A700040E066E072E084EE92E00E944D0FC82FA5
:104A800087E790E00E949223EC2FF0E0EE0FFF1FEB
:104A9000E75EFE4F81818F9380818F931F92CF932A
:104AA0008AE690E09F938F930E942B2485ED91E0FE
:104AB0000E944C218C012DB73EB7205F3F4F0FB6AF
:104AC000F8943EBF0FBE2DBFD0E0C0E094E6E92EC3
:104AD000F12C0115110521F488E697E00E942303CB
:104AE000CE01B7010E94A525892B39F588E690E013
:104AF0000E94922361E080910801909109010E9437
:104B0000C10362E080910801909109010E94C103F4
:104B100063E080910801909109010E94C10364E063
:104B200080910801909109010E94C10365E0809184
:104B30000801909109010E94C1038FE39FE1019751
:104B4000F1F700C000002196C4CFAA1BBB1B51E1A6
:104B500007C0AA1FBB1FA617B70710F0A61BB70BED
:104B6000881F991F5A95A9F780959095BC01CD0192
:104B70000895A1E21A2EAA1BBB1BFD010DC0AA1F9E
:104B8000BB1FEE1FFF1FA217B307E407F50720F0B6
:104B9000A21BB30BE40BF50B661F771F881F991F31
:104BA0001A9469F760957095809590959B01AC017A
:104BB000BD01CF0108950E94E625A59F900DB49FE9
:104BC000900DA49F800D911D11240895A29FB00106
:104BD000B39FC001A39F700D811D1124911DB29F31
:104BE000700D811D1124911D0895FB01DC010D90B4
:104BF0000020E9F7119701900D920020E1F7089548
:104C0000FB01DC0101900D920020E1F708950F9364
:104C10001F93CF93DF93EC018B01892B51F4672B0A
:104C200041F4F0E0E0E0CF01DF91CF911F910F91CF
:104C300008956EE070E081E090E00E945C28FC0145
:104C4000892B79F380E883830115110571F01387AF
:104C5000028781E883838091750790917607892B7D
:104C600021F4F0937607E09375072097E1F2D1875E
:104C7000C0878381826083838091770790917807D2
:104C8000892B89F6F0937807E0937707809179076D
:104C900090917A07892B39F6F0937A07E093790798
:104CA000C2CFAEE0B0E0E7E5F6E20C945B2A0D89F6
:104CB0001E8986E08C831A8309838FEF9FE79E838A
:104CC0008D83AE01475E5F4F6F89788DCE0101966F
:104CD0000E9491262F813885020F131FF801108240
:104CE0002E96E4E00C94772AAEE0B0E0EAE7F6E234
:104CF0000C945B2A8C018EE08C831A8309838FEFDE
:104D00009FE79E838D83CE0101960E9491262F817D
:104D10003885020F131FF80110822E96E4E00C94E0
:104D2000772AABE0B0E0E7E9F6E20C944D2A7C018B
:104D30003B018A01FC0117821682838181FFB9C180
:104D40009AE0292ECE0101965C01F7019381F301CF
:104D500093FD859193FF81913F01882309F446C11A
:104D6000853239F493FD859193FF81913F0185321E
:104D700029F4B70190E00E94BF29E7CF912C412C84
:104D8000512CFFE1F51538F08B3209F188F48032AF
:104D900001F1833221F157FC3AC020ED280F2A306F
:104DA00040F556FE1FC0929C200D1124922E06C085
:104DB0008D3291F0803379F7689450F8F30193FDC8
:104DC000859193FF81913F018111DBCF20C06894D1
:104DD00051F8689452F8F2CF689453F8EFCF689482
:104DE00054F8ECCF429C200D1124422E689455F8C3
:104DF000E5CF8E3229F456FCF9C0689456F8DECF20
:104E00008C3619F4689457F8D9CF8836B9F2982FB0
:104E10009F7D95549330C0F08336A1F18337C1F163
:104E2000833509F05BC0F801C190D1908F01692DE5
:104E300070E056FC02C06FEF7FEFC6010E94A2290E
:104E40004C01689457F80AC00C5F1F4F2FE3298369
:104E500088248394912C6501E89457F853FC04C08E
:104E60004814190409F018F5342C8114910431F513
:104E7000332009F46ACFB70180E290E00E94BF2995
:104E80003A94F6CFF801808189830E5F1F4FE0CFFF
:104E9000F801C190D1908F01692D70E056FC02C0DD
:104EA0006FEF7FEFC6010E94B4294C01D5CFB70147
:104EB00080E290E00E94BF294A94D2CFF60157FCCD
:104EC000859157FE81916F01B70190E00E94BF2943
:104ED00031103A94F1E08F1A9108C7CF843619F057
:104EE000893609F074C0F80157FE6AC0619171916A
:104EF000819191918F01252D2F76D22E97FF09C098
:104F000090958095709561957F4F8F4F9F4F6894D6
:104F1000D7F82AE030E0A5010E94EF29C82ECA1870
:104F20008C2C5D2CD6FE0CC0E89450F8C91440F4CB
:104F3000D4FE05C0D2FC03C0FD2DFE7E5F2E892C61
:104F400054FE8FC0FE01EC0DF11D8081803309F00D
:104F500081C0252D297E522E852D8870382E53FC38
:104F60008FC050FE89C09C2C841418F44C0C942CD7
:104F7000981854FE8BC0B70180E390E00E94BF29CF
:104F800052FE09C088E790E051FE02C088E590E03B
:104F9000B7010E94BF29C91408F484C0CA94D12C57
:104FA0009FEFC91AD90ACA0CDB1CF60182916F0166
:104FB000B70190E00E94BF29AC14BD04B1F758CFEF
:104FC00061917191072E000C880B990B93CFD52C12
:104FD000E894D4F82AE030E0853739F1952D997FAF
:104FE000D92E8F3601F148F48835A9F0F701868172
:104FF00097812B96E2E10C94692A803749F0883733
:10500000A9F7D4FE02C06894D2F820E130E00DC0C8
:105010006894D4F8F6CF54FE03C0E92FE660DE2E84
:1050200020E132E002C028E030E0F801D7FE0DC0F8
:1050300061917191819191918F01A5010E94EF2958
:10504000C82ECA18E894D7F86BCF6191719190E09F
:1050500080E0F2CF52FC02C083947ECF839483948D
:105060007BCF852D867809F477CFF6CFB70180E224
:1050700090E00E94BF2983948414C0F3312C79CF2F
:10508000342C3818841408F474CFF8CF852D867822
:1050900009F481CF8BE251FE80E257FC8DE2B7012B
:1050A00090E077CFB70180E390E00E94BF299A9407
:1050B00072CF8FEF9FEF9DCF0F931F93CF93DF930F
:1050C000869F8001879F100D969F100D1124C801A7
:1050D0000E947828EC01009729F0A80170E060E0B8
:1050E0000E94AD29CE01DF91CF911F910F910895BC
:1050F0000F931F93CF93DF938230910510F482E0DA
:1051000090E0E0917D07F0917E0730E020E0B0E094
:10511000A0E0309799F42115310509F447C0281B08
:10512000390B24303105C0F58A819B8161157105E9
:1051300071F1FB0193838283FE0111C04081518193
:105140000281138148175907F8F04817590799F455
:10515000109761F012960C93129713961C93329647
:10516000CF01DF91CF911F910F91089500937D079B
:1051700010937E07F4CF2115310519F0421753071C
:1051800018F49A01BD01EF01DF01F801C2CF90933D
:105190007E0780937D07D0CFFE01E20FF31F81933E
:1051A00091932250310939832883DACF20917B07EC
:1051B00030917C07232B41F4209141013091420131
:1051C00030937C0720937B0720913F013091400171
:1051D0002115310541F42DB73EB74091430150915F
:1051E0004401241B350BE0917B07F0917C07E2170B
:1051F000F307A0F42E1B3F0B2817390778F0AC01FA
:105200004E5F5F4F2417350748F04E0F5F1F5093D6
:105210007C0740937B0781939193A2CFF0E0E0E07D
:105220009FCFCF93DF930097E9F0FC013297138271
:105230001282C0917D07D0917E07DE0130E020E030
:105240002097A1F420813181820F931F20917B0749
:1052500030917C072817390709F067C0F0937C0765
:10526000E0937B07DF91CF910895DA01AE17BF0776
:1052700008F040C012964D915C9113979D01411525
:10528000510599F7D9011396FC93EE9312974D911E
:105290005D91A40FB51FEA17FB0779F48081918116
:1052A0000296840F951FD90111969C938E9382814B
:1052B000938113969C938E931297B0E0A0E08A811D
:1052C0009B810097B9F5FE0181919191E80FF91F3B
:1052D00080917B0790917C078E179F0719F6109796
:1052E00061F510927E0710927D07D0937C07C093E2
:1052F0007B07B8CFB383A28340815181840F951F70
:10530000A817B90771F44E5F5F4F8D919C9111976B
:10531000480F591F5183408312968D919C9193831E
:1053200082832115310509F0ADCFF0937E07E0931C
:105330007D0798CFDE01EC01C2CF13961C921E921E
:105340001297D3CFFC010590615070400110D8F73F
:10535000809590958E0F9F1F0895DC0101C06D937D
:1053600041505040E0F70895FC01615070400190B9
:105370000110D8F7809590958E0F9F1F08950F9379
:105380001F93CF93DF93182F092FEB018B8181FDA2
:1053900009C01FEF0FEF812F902FDF91CF911F9149
:1053A0000F91089582FF14C02E813F818C819D81D1
:1053B000281739073CF4E881F981CF0101969983D8
:1053C000888310838E819F8101969F838E83E3CF94
:1053D000E885F985812F0995892BA1F3DACFFA01A8
:1053E000AA27283051F1203181F1E8946F936E7F24
:1053F0006E5F7F4F8F4F9F4FAF4FB1E03ED0B4E015
:105400003CD0670F781F891F9A1FA11D680F791F55
:105410008A1F911DA11D6A0F711D811D911DA11D66
:1054200020D009F468943F912AE0269F1124301976
:10543000305D3193DEF6CF010895462F4770405D11
:105440004193B3E00FD0C9F7F6CF462F4F70405DC0
:105450004A3318F0495D31FD4052419302D0A9F71B
:10546000EACFB4E0A6959795879577956795BA9515
:10547000C9F700976105710508959B01AC010A2EDB
:1054800006945795479537952795BA95C9F7620FB2
:10549000731F841F951FA01D08952F923F924F9256
:1054A0005F926F927F928F929F92AF92BF92CF92B4
:1054B000DF92EF92FF920F931F93CF93DF93CDB7BD
:1054C000DEB7CA1BDB0B0FB6F894DEBF0FBECDBF35
:1054D00009942A88398848885F846E847D848C8406
:1054E0009B84AA84B984C884DF80EE80FD800C810F
:1054F0001B81AA81B981CE0FD11D0FB6F894DEBFF2
:0C5500000FBECDBFED010895F894FFCF61
:10550C0002012A002B0029000A012700280026008E
:10551C001201240025002300010C0216021F022791
:10552C00023102390241024E0255025B026A027AD2
:10553C000288029402A302B002B802BF02CF02009A
:10554C00007F072000222A2B2C2E3A3B3C3D3E3F6D
:10555C005B5D7C7F00809A45418E418F804545453F
:10556C004949498E8F9092924F994F555559999A16
:10557C009B9C9D9E9F41494F55A5A5A6A7A8A9AA4E
:10558C00ABACADAEAFB0B1B2B3B4B5B6B7B8B9BAE7
:10559C00BBBCBDBEBFC0C1C2C3C4C5C6C7C8C9CAD7
:1055AC00CBCCCDCECFD0D1D2D3D4D5D6D7D8D9DAC7
:1055BC00DBDCDDDEDFE0E1E2E3E4E5E6E7E8E9EAB7
:1055CC00EBECEDEEEFF0F1F2F3F4F5F6F7F8F9FAA7
:1055DC00FBFCFDFEFF43414E004641540046415446
:1055EC00333200222A2B2C3A3B3C3D3E3F5B5D7C08
:1055FC007F00252E35732530336400303A2F4C4F05
:10560C0047474552002F002E6C6F67004F4B0046EA
:10561C0061696C6564004449534B5F4552520049C3
:10562C004E545F455252004E4F545F5245414459BF
:10563C00004E4F5F46494C45004E4F5F5041544819
:10564C0000494E56414C49445F4E414D450044453E
:10565C004E49454400455849535400494E56414C17
:10566C0049445F4F424A4543540057524954455FA1
:10567C0050524F54454354454400494E56414C49B1
:10568C00445F4452495645004E4F545F454E41428B
:10569C004C4544004E4F5F46494C455F535953545B
:1056AC00454D004D4B46535F41424F5254454400CB
:1056BC0054494D454F5554004C4F434B4544004EB7
:1056CC004F545F454E4F5547485F434F524500542A
:1056DC004F4F5F4D414E595F4F50454E5F46494CC1
:0456EC004553000022
:00000001FF
