:100000000C94D6010C94F3010C94F3010C94F301BD
:100010000C94F3010C94F3010C94F3010C94F30190
:100020000C94F3010C94F3010C94F3010C94F30180
:100030000C94F3010C94F3010C94F5010C94F3016E
:100040000C94F3010C94F3010C94F3010C94F30160
:100050000C94F3010C94F3010C94F3010C94F30150
:100060000C94F3010C94F3012E00526571756573C5
:1000700074696E6720454355206461746120666F22
:1000800072207069643A2025752E2E2E0A00434195
:100090004E20696E7465726661636520696E69746D
:1000A00069616C697A6174696F6E204641494C459B
:1000B00044210A0043414E20696E74657266616393
:1000C0006520636F6E666967757265640A007263A6
:1000D0003D25752046525F25730A00665F6D6F757A
:1000E0006E742072657475726E65643A20004D6F8F
:1000F000756E74696E672046617446732E2E2E0AE3
:100100000053504920686172647761726520636FA3
:100110006E666967757265640A006D6963726F5314
:10012000442043532050696E20636F6E6669677583
:10013000726564202D20423120284439290A004369
:10014000414E2043532050696E20636F6E6669678D
:1001500075726564202D2042322028443130290AEE
:100160000048656C6C6F20537061726B66756E2011
:10017000526564626F617264210A0043414E2069D6
:10018000643D3078255820646174613D307825588D
:100190002030782558203078255820307825582070
:1001A0003078255820307825582030782558203050
:1001B000782558207274723D25640A002575202523
:1001C000250A0025752E2530337520560A00257521
:1001D00020672F730A002575206B6D0A00256420A7
:1001E000646567430A0025642072706D0A005049F7
:1001F0004420726571756573742073656E74207325
:1002000075636365737366756C6C792E2E2E0A00A8
:10021000636C7374203D2030782578005468652025
:1002200070617468205B25735D2077617320666F51
:10023000756E642E204F70656E696E6720657869F3
:100240007374696E672066696C652E2E2E0A0054E1
:1002500068652070617468205B25735D2077617329
:10026000206E6F7420666F756E642E204372656118
:1002700074696E67206E657720656E7472792E2EB4
:100280002E0A00666F6C6C6F775F70617468207304
:1002900075636365737366756C2E2E2E0A0066692E
:1002A0006E645F766F6C756D6520737563636573DF
:1002B0007366756C2E2E2E0A0041626F7574207461
:1002C0006F207772697465206D756C7469706C65E8
:1002D00020626C6F636B733A202575203078256C33
:1002E000780A0041626F757420746F2077726974A8
:1002F0006520612073696E676C6520626C6F636B4B
:100300003A203078256C780A0041626F7574207449
:100310006F2072657475726E205245535F5752504C
:100320005254210041626F757420746F207265749D
:1003300075726E205245535F4E4F545244592100FE
:1003400041626F757420746F2072657475726E20CF
:100350005245535F5041524552522100636F6D6DBB
:10036000616E6420726573756C743A2025750A009D
:10037000646F6E652E0A00535049206461746120D9
:100380007265676973746572203D20307825580A5C
:1003900000535049207374617475732072657175D0
:1003A000657374203D20307825580A0011241FBE43
:1003B000CFEFD8E0DEBFCDBF12E0A0E0B1E0E4ECCB
:1003C000F4E502C005900D92A43CB107D9F725E0F1
:1003D000A4ECB2E001C01D92A933B207E1F70E947C
:1003E000C7260C94262A0C9400001F920F920FB679
:1003F0000F9211242F933F934F935F936F937F93AB
:100400008F939F93AF93BF93EF93FF9380912D05AD
:1004100090912E05019690932E0580932D050E94B4
:10042000A703FF91EF91BF91AF919F918F917F9122
:100430006F915F914F913F912F910F900FBE0F9051
:100440001F9018952FED37E0309323052093220558
:1004500090912405907E90619093240592E0909372
:10046000250591E090932605809327051092280595
:100470001092290510922A0510922B0510922C0536
:1004800040E060EE8FE00E94711C82E295E00E94E5
:10049000F61D811101C008958EEE91E00C94A32504
:1004A000FC0195818681282F30E09D3009F45AC0E7
:1004B000F0F1913109F463C0943109F475C09031C1
:1004C00009F48BC02281279522272795220F220B22
:1004D000422F022E000C550B5F932F9322851F9203
:1004E0002F9321851F922F9320851F922F93278171
:1004F0001F922F931F928F931F929F9384811F921D
:100500008F9383811F928F9381818F9380818F93AB
:100510008BE791E09F938F930E943C268DB79EB707
:1005200046960FB6F8949EBF0FBE8DBF08959530C6
:1005300009F46AC09C3031F6322F22278781280FB8
:10054000311D35952795359527953F932F9386EE49
:1005500091E09F938F930E943C260F900F900F90F5
:100560000F9008951F928F9386ED91E09F938F9344
:100570000E943C260F900F900F900F90089524E654
:10058000829FC00111246FEF70E00E9425287F93A5
:100590006F938CEB91E09F938F930E943C260F907A
:1005A0000F900F900F90089525E0829FC0011124B5
:1005B00068EE73E00E9425289F938F937F936F933B
:1005C00083EC91E09F938F930E943C260F900F90B5
:1005D0000F900F900F900F900895322F2227878150
:1005E000820F932F911D64E670E00E9425287F936F
:1005F0006F938EEC91E09F938F930E943C260F9017
:100600000F900F900F900895285231093F932F9328
:100610008DED91E09F938F930E943C260F900F9059
:100620000F900F900895892B21F085B7806185BFC9
:10063000089585B78F7E85BF0895DC011296ED91F0
:10064000FC911397908121E030E001C0220F6A9560
:10065000EAF7522F50959523908341FF0FC0ED91FB
:10066000FC91119790815923508340FF06C0129648
:10067000ED91FC918081282B2083089542FFFDCFCE
:10068000ED91FC9111978081822B808340FFF5CF03
:100690001296ED91FC918081282B2083EECFDC0116
:1006A0001496ED91FC91808121E030E001C0220F91
:1006B0006A95EAF782230895DC011296ED91FC9188
:1006C00081E090E001C0880F6A95EAF79081452BA0
:1006D00019F0892B8083089580958923808308955C
:1006E000813011F081E008950C946720813011F081
:1006F00081E008950C949E1F0F931F93FB01BA0194
:10070000A901813021F084E01F910F910895980193
:10071000CF011F910F910C946A200F931F93FB013F
:10072000BA01A901813021F084E01F910F91089551
:100730009801CF011F910F910C94C120962F813009
:1007400011F084E00895BA01892F0C9472210C9461
:100750007524CF93DF93EC01A881B981109719F12B
:100760004C91413268F04A33F1F0FD0103C09A33F5
:1007700061F0F9019F012F5F3F4F91819132B8F7EE
:1007800090E080E0DF91CF91089511962A173B0702
:1007900051F4403341F43296F983E88390E080E0ED
:1007A000DF91CF9108958FEF9FEFECCF0F931F93C1
:1007B000CF93DF93EC018B01892B71F0E881F981F4
:1007C000309751F08081882339F02A813B818581DF
:1007D00096812817390759F089E030E020E0F801C8
:1007E00031832083DF91CF911F910F9108958181F3
:1007F0000E94700380FDF0CF2881398180E0EFCF27
:10080000FB01DC01460F571F81918D93E417F5071B
:10081000D9F708958F929F92AF92BF92EF92FF9275
:100820000F931F93CF93DF93EC017C0143E3E40E1E
:10083000F11C2FA538A949A95AA901E010E0B70178
:1008400089810E948D0381111FC01B828FA598A9E9
:10085000A9A9BAA90B8D1C8D2D8D3E8D8BA09CA0B6
:10086000ADA0BEA0AC01BD01481959096A097B09B8
:100870004A015B0180169106A206B30618F46A814C
:10088000623071F080E001C081E0DF91CF911F9173
:100890000F91FF90EF90BF90AF909F908F90089531
:1008A000A9019801280F391F4A1F5B1F01E010E0C2
:1008B000B70189810E948D0380E0E7CFCF92DF925C
:1008C000EF92FF920F931F93CF93DF93EC016A0196
:1008D0007B018B81811120C001E010E0A70196010E
:1008E000BE016D5C7F4F89810E947C0381110EC027
:1008F00080E0CFA6D8AAE9AAFAAADF91CF911F91EA
:100900000F91FF90EF90DF90CF90089581E0CC247D
:10091000CA94DC2C7601EDCFCE010E940A04882314
:10092000D9F2EBCFCF93DF93EC011B828FEF9FEFD8
:10093000DC018FA798ABA9ABBAAB4F3F2FEF5207A3
:100940006207720729F0CE010E945E04811140C047
:10095000FE01EF5CFD4F8081918185359A4AA1F5BA
:100960008BA9893E49F08B3E21F082E0DF91CF9147
:1009700008958DA98039C9F7FE01E759FF4F80819D
:10098000863441F431968081813421F4319680811E
:100990008435B1F0DE01AA57BF4FCB57DF4F8881B6
:1009A0008654990BE0EBF2E0892BF9F68D91919149
:1009B000891B990B22E0E43BF207B1F7892BA9F6DA
:1009C00080E0DF91CF91089583E0DF91CF9108958A
:1009D00084E0DF91CF9108952F923F924F925F92E2
:1009E0006F927F928F929F92AF92BF92CF92DF923F
:1009F000EF92FF920F931F93CF93DF93CDB7DEB7A4
:100A0000A0970FB6F894DEBF0FBECDBF6B01B42E1A
:100A1000DB011D921C920E94A9037C018BE0F7FC74
:100A20001FC0F701EE0FFF1FEA53FD4F0081118138
:100A30000115110509F41AC2F60111830083E89427
:100A4000B0F8D8018C91882321F111968C910E94E5
:100A5000700380FD1EC0BB2011F082FDFBC180E051
:100A6000A0960FB6F894DEBF0FBECDBFDF91CF9139
:100A70001F910F91FF90EF90DF90CF90BF90AF90BC
:100A80009F908F907F906F905F904F903F902F90AE
:100A90000895F8011082E1828E2D0E94760380FD78
:100AA000D7C1BB2011F082FDD5C140E050E0BA01B2
:100AB000C8010E949204823009F488C1843009F48C
:100AC000CBC1C12CD12C7601823008F0BFC1D80136
:100AD000DE968D919C918115924009F0B7C1F80185
:100AE000E75BFF4F80809180B12CA12C8114910491
:100AF000A9F4F801E75AFF4F80809180B12CA12C16
:100B0000BA2CA92C982C882431978081882ABA2C59
:100B1000A92C982C882431978081882AF801838E0B
:100B2000948EA58EB68EED5BFF4FA081F801A28357
:100B30008FEF8A0F823008F089C1E05CFF4F20817F
:100B4000298B822F90E0F80192878187009709F422
:100B50007DC19C012150310982239323892B09F007
:100B600075C1EC5BFF4F20803180F8013086278211
:100B7000C1018F709927892B09F068C1EA5BFF4F8B
:100B800040805180712C612C41145104A9F4F8016A
:100B9000EB5AFF4F40805180712C612C762C652CD4
:100BA000542C442431978081482A762C652C542C6F
:100BB000442431978081482AF801EF5BFF4F019070
:100BC000F081E02D309709F441C1B0E0A501940116
:100BD0000E9470286D8F7E8F8F8F98A39F0150E0A9
:100BE00040E0298F3A8F4B8F5C8FC101929582959F
:100BF0008F7089279F708927280F391F411D511D2C
:100C0000DA01C9012D8D3E8D4F8D58A1280F391F56
:100C10004A1F5B1F2D8B3E8B4F8B588F42165306FE
:100C20006406750608F412C1421A530A640A750A6A
:100C30009989892F90E0B0E0A0E0898B9A8BAB8BEB
:100C4000BC8BC301B20129893A894B895C890E9416
:100C5000392889899A89AB89BC89481659066A0658
:100C60007B0608F4F3C0263F9FEF390749079FE052
:100C7000590708F0EBC029013A01A2E04A0E511CC5
:100C8000611C711C898D9A8DAB8DBC8D8C0D9D1D49
:100C9000AE1DBF1D898B9A8BAB8BBC8B8D899E89BA
:100CA000AF89B88D8C0D9D1DAE1DBF1D8D8B9E8B8C
:100CB000AF8BB88F263F9FEF39074105510508F0EC
:100CC000D7C0263F3F404105510508F018C1D80163
:100CD00057964D925D926D927C925A97F801C78E0D
:100CE000D0A2E1A2F2A2C988DA88EB88FC889396A8
:100CF000CD92DD92ED92FC929697CD88DE88EF88BA
:100D0000F88C9B96CD92DD92ED92FC929E972328D3
:100D100009F49CC089899A89AB89BC89CD8CDE8C09
:100D2000EF8CF8A08C0D9D1DAE1DBF1DF80187A393
:100D300090A7A1A7B2A7D301C201880F991FAA1F2C
:100D4000BB1F840D951DA61DB71DB695A79597953C
:100D50008795F1E04F22552466247724840D951D54
:100D6000A61DB71D21E081509E4FAF4FBF4F2C01F4
:100D70003D0159E076946794579447945A95D1F77A
:100D800084149504A604B70408F460C08FEF9FEFA5
:100D9000DC01F8018787908BA18BB28B83879487C6
:100DA000A587B68780E8848320838091C4029091D0
:100DB000C50201969093C5028093C40296838583F1
:100DC000138A148A158A168A80E04ACEF801EB50FD
:100DD000FE4F9E012F5F3F4F59014E0131E1830EBF
:100DE000911C9501808140E050E0BA01882399F080
:100DF00086819781B0E0A0E0BA2FA92F982F88278D
:100E00004581842BBA2FA92F982F882744816C0104
:100E1000C42ABD01A601D9014D935D936D937D93C5
:100E20009D0170968A169B06E9F6F501C190D19056
:100E3000E190F1905F0183E0C114D104E104F10479
:100E400069F4A814B90489F7843031F08DE008CE34
:100E500083E006CE8AE004CE81E002CEB701A6018F
:100E6000C8010E949204823060F731CE8CE0F8CD48
:100E7000F801478A508E618E728EC78ED0A2E1A291
:100E8000F2A2C988DA88EB88FC88C3A2D4A2E5A2C2
:100E9000F6A2CD88DE88EF88F88CC3A6D4A6E5A696
:100EA000F6A6E35AFF4F8081918182299329892BED
:100EB00069F6F801EF59FF4F80819181B0E0A0E021
:100EC000BA2FA92F982F882731972081822BBA2FEC
:100ED000A92F982F882731972081822BF80187A38B
:100EE00090A7A1A7B2A7D301C201880F991FAA1F7B
:100EF000BB1F880F991FAA1FBB1F23E034CFD80147
:100F000057964D925D926D927C925A97F801C78EDA
:100F1000D0A2E1A2F2A2C988DA88EB88FC88939675
:100F2000CD92DD92ED92FC929697CD88DE88EF8887
:100F3000F88C9B96CD92DD92ED92FC929E972328A1
:100F400009F484CF89899A89AB89BC89CD8CDE8CE0
:100F5000EF8CF8A08C0D9D1DAE1DBF1DF80187A361
:100F600090A7A1A7B2A7D301C201880F991FAA1FFA
:100F7000BB1F22E0F8CE4F925F926F927F928F92CA
:100F80009F92AF92BF92CF92DF92EF92FF920F9318
:100F90001F93CF93DF93EC016A017B012801390194
:100FA00088818230B9F0833009F49FC08130C9F163
:100FB00082E0DF91CF911F910F91FF90EF90DF9032
:100FC000CF90BF90AF909F908F907F906F905F90E9
:100FD0004F90089577276F2D5E2D4D2D8BA19CA1ED
:100FE000ADA1BEA1480F591F6A1F7B1F8FA598A9ED
:100FF000A9A9BAA9481759076A077B0729F0CE01A2
:101000000E945E048111D5CFF601EE0FFF1FEE7F27
:10101000F170EC0FFD1F54AA43AA81E08B8380E09E
:10102000C8CF8A0116950795040F151FC801892F8F
:10103000992786954BA15CA16DA17EA1480F591FF0
:10104000611D711D8FA598A9A9A9BAA948175907AB
:101050006A077B0729F0CE010E945E048111A9CFA7
:101060004E0183E3880E911C58019FEFA91AB90A1B
:101070001170F401E00FF11FA501452F552746958A
:1010800070E060E0C0FE75C080818F7090E1499E85
:1010900090011124822B808381E08B838BA19CA102
:1010A000ADA1BEA1480F591F6A1F7B1F8FA598A92C
:1010B000A9A9BAA9481759076A077B0729F0CE01E1
:1010C0000E945E04811175CF81E0B822F401EA0D1F
:1010D000FB1D64E076946794579447946A95D1F722
:1010E000408281E08B8380E064CF8BA19CA1ADA185
:1010F000BEA137E076956795579547953A95D1F714
:10110000480F591F6A1F7B1F8FA598A9A9A9BAA9C3
:10111000481759076A077B0729F0CE010E945E0431
:10112000811147CFB301A2017F70FE01F396CC0C71
:10113000DD1CCC0CDD1C8CEFC82281E0D822EC0D2C
:10114000FD1D82819381B0E0A0E03C015524442440
:1011500044245524662490EF7922442A552A662A8D
:10116000772A408251826282738281E08B8380E0A1
:1011700020CF408281E08B838BA19CA1ADA1BEA139
:10118000480F591F6A1F7B1F8FA598A9A9A9BAA943
:10119000481759076A077B0729F0CE010E945E04B1
:1011A000811107CF91E0B922F401EA0DFB1D808186
:1011B000807F952D9F70492E482A92CF4F925F9243
:1011C0006F927F92AF92BF92CF92DF92EF92FF9297
:1011D0000F931F93CF93DF938C016A017B0122E071
:1011E000C216D104E104F10450F0FC018789908D0E
:1011F000A18DB28DC816D906EA06FB0698F061E00B
:1012000070E080E090E0DF91CF911F910F91FF900F
:10121000EF90DF90CF90BF90AF907F906F905F90F6
:101220004F9008958081823009F49AC0833009F488
:101230005CC0813021F7EA01D695C795CC0DDD1D44
:1012400083A194A1A5A1B6A19E01232F33272695A2
:10125000AC01BD01420F531F611D711D47A450A871
:1012600061A872A8441555056605770571F0C80197
:101270000E945E0481118EC0F80183A194A1A5A1F2
:10128000B6A147A450A861A872A85E01FFEFAF1AEB
:10129000BF0AD170C00FD11FCBA9D0E09501232F79
:1012A00033272695AC01BD01420F531F611D711DEF
:1012B000441555056605770529F0C8010E945E04AE
:1012C000811168C021E0B222F801EA0DFB1D83A95B
:1012D000D82BC0FE6FC0D295C295CF70CD27DF70DE
:1012E000CD27BE0190E080E08ECF83A194A1A5A17F
:1012F000B6A1C7E07695679557954795CA95D1F7FA
:10130000480F591F6A1F7B1F87A590A9A1A9B2A9E1
:10131000481759076A077B0729F0C8010E945E0435
:10132000811138C0F801F396CC0CDD1CCC0CDD1C0F
:101330002CEFC22221E0D222EC0DFD1D62817381CF
:1013400090E080E0982F872F762F66272181622BEF
:10135000982F872F762F66272081622B9F7053CF7F
:1013600077276F2D5E2D4D2D83A194A1A5A1B6A148
:10137000480F591F6A1F7B1F87A590A9A1A9B2A971
:10138000481759076A077B0749F0C8010E945E04A5
:10139000882321F06FEF7FEFCB0135CFF601EE0F01
:1013A000FF1FEE7FF170E00FF11F63A974A990E0B9
:1013B00080E029CFDF70BE0190E080E024CF4F9223
:1013C0005F926F927F928F929F92AF92BF92CF92D5
:1013D000DF92EF92FF920F931F93CF93DF93EC0175
:1013E0006A017B0108811981CE86DF86E88AF98A45
:1013F0004E805F80688479844114510461047104D3
:1014000009F052C0F8018081833008F042C0F80131
:1014100087819085B0E0A0E0B701A60125E0769530
:101420006795579547952A95D1F7481759076A0741
:101430007B0708F07DC087A090A4A1A4B2A48E8AE7
:101440009F8AA88EB98E4A8A5B8A6C8A7D8A8114AB
:101450009104A104B10409F46BC08E8A9F8AA88EFE
:10146000B98E0D5C1F4FC00ED11EDB8ECA8E80E080
:10147000DF91CF911F910F91FF90EF90DF90CF9070
:10148000BF90AF909F908F907F906F905F904F90A4
:10149000089587A190A5A1A5B2A50097A105B105C2
:1014A00009F4B5CF2C013D01F80181849284B12C5F
:1014B000A12C89E0880C991CAA1CBB1C8A95D1F729
:1014C000C814D904EA04FB04A8F1C8011BC082E0D7
:1014D000481651046104710458F1F8018789908D10
:1014E000A18DB28D481659066A067B0608F5C81804
:1014F000D908EA08FB08C814D904EA04FB04F0F090
:1015000088819981B301A2010E94DE082B013C0170
:10151000FFEF4F165F066F067F06C9F681E0A8CF82
:101520001E8A1F8A188E198E4A8A5B8A6C8A7D8A67
:1015300082E09ECF8789908DA18DB28DA30192010B
:1015400022503109410951090297A109B10928170F
:1015500039074A075B0720F7F801A185B2850E9489
:10156000702883A494A4A5A4B6A4860E971EA81ED2
:10157000B91E8E8A9F8AA88EB98E65CF4F925F92D0
:101580006F927F928F929F92AF92BF92CF92DF9293
:10159000EF92FF920F931F93CF93DF938C012A0159
:1015A0003B01FC01C081D1814114510461047104EB
:1015B00009F0D1C08B849C84AD84BE8481149104D5
:1015C000A104B10409F0BCC0812C912C5401839476
:1015D0008F859889A989BA89892B8A2B8B2B09F445
:1015E00099C08F89988DA98DBA8D7501640116C037
:1015F000613071058105910509F412C16F3F7F4F7C
:101600008F4F9F4F09F411C1C814D904EA04FB0499
:1016100009F480C08F89988DA98DBA8DEFEFCE1A0D
:10162000DE0AEE0AFE0AC816D906EA06FB0660F0D4
:10163000F2E08F169104A104B10408F46BC022E01B
:10164000C22ED12CE12CF12CB701A601F80180812A
:1016500091810E94DE08611571058105910541F6B1
:1016600022E0C216D104E104F10408F4D9C08F8944
:10167000988DA98DBA8DC816D906EA06FB0608F022
:10168000CFC00FEF1FEF9801B701A601CE010E9456
:10169000BB078111C3C04114510461047104D1F02E
:1016A00082E0481651046104710408F4B9C08F89BE
:1016B000988DA98DBA8D481659066A067B0608F0E2
:1016C000AFC097018601B301A201CE010E94BB0702
:1016D0008111A4C0CB86DC86ED86FE864F855889B5
:1016E00069897A898F89988DA98DBA8D0297A10908
:1016F000B10984179507A607B70740F04150510973
:10170000610971094F87588B698B7A8B8C81816055
:101710008C8303C0C12CD12C7601C701B601DF91A7
:10172000CF911F910F91FF90EF90DF90CF90BF90DE
:10173000AF909F908F907F906F905F904F900895A3
:101740008F89988DA98DBA8D88169906AA06BB0631
:1017500008F43ECF39CFCE010E94DE086B017C0138
:10176000F2E0CF16D104E104F10408F459C02FEFE0
:10177000C216D206E206F20609F457C08F89988D88
:10178000A98DBA8DC816D906EA06FB0630F24F8538
:10179000588969897A89452B462B472B09F4BACF9A
:1017A00073016201EFEFCE1ADE0AEE0AFE0AC816D6
:1017B000D906EA06FB0628F032E0C32ED12CE12C34
:1017C000F12CB701A601F801808191810E94DE0809
:1017D000613071058105910519F16F3FFFEF7F07BA
:1017E0008F079F0711F1672B682B692B19F18B84E9
:1017F0009C84AD84BE848F89988DA98DBA8D22E09A
:1018000082169104A104B10430F088169906AA0644
:10181000BB0608F4EACE53014201E7CE813029F03D
:10182000C12CD12C7601C39478CFCC24CA94DC2C63
:10183000760173CFC114D104E104F10409F017CF8C
:101840008F89988DA98DBA8D53014201CECE2F92EA
:101850003F924F925F926F927F928F929F92AF9240
:10186000BF92CF92DF92EF92FF920F931F93CF938D
:10187000DF93CDB7DEB72E970FB6F894DEBF0FBE5D
:10188000CDBF9E878D875B01DC011E96CD90DD90DC
:10189000ED90FC905197B0E2CB0ED11CE11CF11CF5
:1018A000FC0186899789A08DB18D0097A105B105AE
:1018B00009F46EC0C114D104F0E2EF06F10408F09F
:1018C00067C0ED85FE8580809180B701A6015170CB
:1018D00066277727452B462B472B71F15401F3E3FD
:1018E000AF0EB11CED85FE85C686D786E08AF18AEB
:1018F000F1E0DF22CA0CDB1CAD85BE855B96DC9275
:10190000CE925A9780E02E960FB6F894DEBF0FBEA7
:10191000CDBFDF91CF911F910F91FF90EF90DF909E
:10192000CF90BF90AF909F908F907F906F905F907F
:101930004F903F902F9008950196A11DB11DED8508
:10194000FE85868B978BA08FB18F428853886488E1
:101950007588D4014114510461047104D9F41796B7
:101960008D919C91B0E0A0E0B701A601E5E07695ED
:10197000679557954795EA95D1F7481759076A072C
:101980007B0708F08CC05401B3E3AB0EB11CAACFA7
:1019900084E0B9CF19966D917C9161507109B0E0E6
:1019A000A0E09701860149E03695279517950795A0
:1019B0004A95D1F7AB01BD01402351236223732324
:1019C00049835A836B837C83452B462B472B29F015
:1019D000540153E3A50EB11C85CFB301A201C4018C
:1019E0000E94DE082B013C0162E0461651046104AE
:1019F000710408F452C07FEF471657066706770652
:101A000009F4F6C0F4018789908DA18DB28D481636
:101A100059066A067B0608F04AC0A30192012250CB
:101A20003109410951092D833E834F835887540161
:101A300033E3A30EB11CED85FE85428A538A648A86
:101A4000758A0297A109B1092D813E814F81588580
:101A5000281739074A075B0798F4F401A185B28576
:101A60000E94702803A514A525A536A53B014C01AD
:101A7000600E711E821E931E69827A828B829C8206
:101A800069807A808B809C80AD85BE8556966D92EC
:101A90007D928D929C92599725CF82E034CFED852F
:101AA000FE85168A178A108E118E84E02CCFAB2803
:101AB000B1F3AD85BE8552964D915D916D917C914E
:101AC0005597CD010E94BE0A2B013C0187E04114CD
:101AD00051046104710409F416CFB1E04B165104AE
:101AE00061047104D1F2EFEF4E165E066E067E06BB
:101AF00009F47EC0D40113968C91811173C0A301A7
:101B0000920122503109410951092D833E834F83AF
:101B10005887F4018789908DA18DB28D0297A10914
:101B2000B109281739074A075B0708F063C0A18588
:101B3000B2852D813E814F8158850E94702823A552
:101B400034A545A556A5260F371F481F591F2987BD
:101B50003A874B875C8729853A854B855C85D4011C
:101B60009F962D933D934D935C93D2975401B3E38D
:101B7000AB0EB11CC4018D5C9D4FF5011192E817AD
:101B8000F907E1F7F40181859285312C212C892B0D
:101B900059F423C0FFEF2F1A3F0AD40119968D91F3
:101BA0009C9128163906A8F401E010E029853A85B1
:101BB0004B855C85220D331D411D511DB501F4017E
:101BC00081810E948D03882329F3D40119968D9178
:101BD0009C918215930561F4F4018789908DA18D04
:101BE000B28D29CFC4010E940A04882309F487CF4B
:101BF00081E089CE19861A861B861C86ACCF2F926F
:101C00003F924F925F927F928F929F92AF92BF923C
:101C1000CF92DF92EF92FF920F931F93CF93DF93B8
:101C20004C01EB01DC01AD90BC9088818F3261F1F9
:101C30008C3551F1F50183899489A589B689F40120
:101C400086839783A087B1878881803258F580E8A2
:101C5000D40197968C9340E050E0BA01C401DF9123
:101C6000CF911F910F91FF90EF90DF90CF90BF9099
:101C7000AF909F908F907F905F904F903F902F906C
:101C80000C94DF09219688818F32E1F38C35D1F3F2
:101C9000D40116961D921D921D921C92199788814F
:101CA0008032A8F22401BCE14B0E511CF401B7961E
:101CB0007F016401FDE1CF0ED11C150183E3280EE5
:101CC000311CF20180E28193EE16FF06E1F7688194
:101CD0006E32A9F1DE01119630E020E090E080E064
:101CE00048E050E00196613208F40DC16F3209F40A
:101CF00057C06C3509F454C06E32C1F02417350753
:101D000088F196E0792E872DDF91CF911F910F9169
:101D1000FF90EF90DF90CF90BF90AF909F908F900B
:101D20007F905F904F903F902F9008954B305105DA
:101D300041F328E030E04BE050E06D91D3CFF40167
:101D4000648F89818E3209F0E1C0858F8A818E325D
:101D5000C1F223E030E08F3209F0CBC0C20FD31FB5
:101D600080E234C067FF05C0E62FF0E0E152FF4F8C
:101D70006081623231F2E7EBF2E07AE2671709F252
:101D800071917111FBCF7FE9760F7A3108F46052BF
:101D9000F201E20FF31F60832F5F3F4F6D91A2CFDF
:101DA000FE01E80FF91FEF0181918F32E1F38C35CD
:101DB000D1F3232B09F4A5CFF401848D853E11F4D2
:101DC00085E0848F80E0613208F484E0D401979646
:101DD0008C93F4010081118140E050E0BA01C4010C
:101DE0000E94DF09782E882341F06FC070E060E028
:101DF000C4010E94270C811167C0D40156964D91F1
:101E00005D916D917C915997F80187A590A9A1A941
:101E1000B2A9481759076A077B0729F0C8010E9431
:101E20005E04811151C0D4015A96ED91FC915B97EB
:101E30008081882309F45AC04385842F8F731496B8
:101E40008C931497838583FDD1CF3C2D2D2D8191CB
:101E50005C969C91891B990B02C03A2F2B2F892BE2
:101E600029F6A32FB22F81919D91891B990BEA1618
:101E7000FB0699F7892B09F0B9CFD40197968C917D
:101E800082FD41CF44FF49C0D4011E96ED91FC91E3
:101E9000F170E20DF31D428D538D70E060E0D501CD
:101EA0008C91833059F484899589B0E0A0E0DC01FD
:101EB00099278827482B592B6A2B7B2BF4014683C3
:101EC000578360877187FDCE782EF40187A1F4E0F7
:101ED0007F1219CF982F947085FF1BC0992309F4A6
:101EE000F0CE80E8F40187A3712C0DCF97968C91EA
:101EF000F1CF8C3509F432CF813208F002CFC20F16
:101F0000D31F84E263CFC80FD91F53CF22E030E044
:101F100022CF84E0782E9111F6CE35E0732EF3CEE9
:101F2000EF92FF920F931F93CF93DF93EC017B010E
:101F30000881198184E02EC0F80187A590A9A1A984
:101F4000B2A9481759076A077B0729F0C8010E9400
:101F50005E04811133C0EA8DFB8D9081992369F174
:101F600083858F738C83953E71F09E3261F08F3044
:101F700051F08F7121E030E0883011F030E020E046
:101F80002E153F0591F070E060E0CE010E94270C15
:101F9000811114C04E895F89688D798D4115510575
:101FA0006105710549F6811109C080E0DF91CF918B
:101FB0001F910F91FF90EF90089584E01E8A1F8A71
:101FC000188E198EDF91CF911F910F91FF90EF9096
:101FD0000895FF920F931F93CF93DF93EC01088135
:101FE000198140E050E0BA010E94DF09F82E8823F1
:101FF00099F0F4E0FF122AC087E0F82E8F2DDF91D0
:10200000CF911F910F91FF90089561E070E0CE0194
:102010000E94270C811121C04E895F89688D798DBE
:10202000F80187A590A9A1A9B2A9481759076A077D
:102030007B0729F0C8010E945E0481110EC0EA8D61
:10204000FB8D8081853E11F08111DFCF8F2DDF91D7
:10205000CF911F910F91FF900895F82ECACF0F9343
:102060001F93CF93DF93EC010E940A04982F8111F4
:102070000CC088818330B1F050E040E060E089819D
:102080000E949E0391E0882331F0892FDF91CF9148
:102090001F910F91089590E0892FDF91CF911F91AB
:1020A0000F9108958C81813039F7BE016D5C7F4FAF
:1020B000CE018D5C9D4FFB011192E817F907E1F706
:1020C00085E5FE01EF5CFD4F80838AEA31968083CF
:1020D00082E58BAB8CAB81E68DAB91E49EAB22E7C6
:1020E0007B9720833196208331969083319680832D
:1020F0008F859889A989BA89319680839183A28333
:10210000B3838B859C85AD85BE8534968083918312
:10211000A283B3832F8D38A149A15AA12F5F3F4FCE
:102120004F4F5F4F2FA738AB49AB5AAB01E010E0E0
:1021300089810E948D031C829FCF1F93CF93DF93D1
:1021400000D000D000D0CDB7DEB79C838B837E83D8
:102150006D83142F7A836983CE0101960E94A903AF
:1021600097FD2BC0880F991FFC01EA53FD4F01908A
:10217000F081E02D309709F01082EB81FC813097DF
:1021800009F010828A539D4FDC01ED93FC9380E0AF
:1021900011110AC026960FB6F894DEBF0FBECDBF50
:1021A000DF91CF911F91089540E0BE016D5F7F4F99
:1021B000CE0105960E94EC04EDCF8BE0EBCF2F9281
:1021C0003F924F925F926F927F928F929F92AF92C7
:1021D000BF92CF92DF92EF92FF920F931F93CF9314
:1021E000DF93CDB7DEB7E4970FB6F894DEBF0FBE2E
:1021F000CDBF7C017CA76BA7142F99E0D92EE114E9
:10220000F10489F0242F2F73C22E422FBE01675D87
:102210007F4FCE018B960E94EC04D82E8823E9F0E4
:10222000F701118210828D2DE4960FB6F894DEBF6F
:102230000FBECDBFDF91CF911F910F91FF90EF9017
:10224000DF90CF90BF90AF909F908F907F906F90D6
:102250005F904F903F902F9008958EE992E00E94FA
:10226000A32589A59AA59A8389836BA57CA5CE0110
:1022700001960E94FF0D012F0C71882339F0002375
:1022800019F0843009F4CAC0D82ECACF83E892E08E
:102290000E94A32588A587FDDEC10111B4C08CA5CD
:1022A0008F938BA58F938CE192E09F938F930E94E5
:1022B0003C268D810F900F900F900F9084FD39C2B6
:1022C00011FD2BC289A59AA5DC019F964D915D91C8
:1022D0006D917C91D297EB8DFC8DC3FE02C068940A
:1022E000C6F8D7015C964D935D936D937C935F9791
:1022F0009196FC93EE939097428D538D70E060E041
:10230000DC012C91233059F40489158930E020E058
:10231000980111270027402B512B622B732BD701DB
:1023200016964D935D936D937C931997868C978C3D
:10233000B12CA12CBA2CA92C982C8824258D822A6A
:10234000BA2CA92C982C8824248D822AF701828605
:102350009386A486B58691838083DC0115962D91A2
:102360003C9133832283C6861786108E118E128E7F
:10237000138E108A118A128A138AC5FE54CF8114D3
:102380009104A104B10409F44ECF808A918AA28AF3
:10239000B38ADC0119964D905C90712C612CE9E0B8
:1023A000440C551C661C771CEA95D1F74814590457
:1023B0006A047B04A8F067C14F3FBFEF5B076B0760
:1023C0007B0709F445C184189508A608B708481486
:1023D00059046A047B0408F056C1F7018081918199
:1023E0000E94DE08AB01BC01423051056105710558
:1023F00018F782E0D82ED70154964D935D936D93D4
:102400007C9357970DCF8D81817129F412FF2BC1D9
:1024100038E0D32E05CFB7E0DB2E02CF8CA58F930B
:102420008BA58F938FE492E09F938F930E943C261D
:1024300009811A81CE0101960E94E90F0F900F9039
:102440000F900F90811120CF4F89588D698D7A8D13
:10245000F80187A590A9A1A9B2A9481759076A0749
:102460007B0729F0C8010E945E0481110DCFEB8D1E
:10247000FC8DCF01809611928E179F07E1F74BE0FC
:1024800050E0BE01635E7F4F8B8D9C8D0E940004E7
:1024900081E0D80113968C936894C3F829A53AA5D6
:1024A000AB8DBC8DC9015A964D905C905B97712C99
:1024B000612CF9014081433069F454964D915C914F
:1024C000559770E060E0BA0155274427442A552A01
:1024D000662A772A1E961C921E971F961C921F979B
:1024E00041E250964C93509748E451964C93EB8DB3
:1024F000FC8D40E24387EB8DFC8D128E138ED9014B
:102500004C91433011F4148A158AEB8DFC8D148E96
:10251000158E168E178E41E0D90113964C931397A2
:10252000411451046104710409F406C129803A8000
:10253000B1E04B1651046104710409F4EBC0F101E0
:102540008789908DA18DB28D481659066A067B0643
:1025500008F0E0C0D9019F968D909D90AD90BC9001
:10256000D297C10149AA5AAA6BAA7CAA49A95AA919
:102570006BA97CA90E94DE086DA77EA78FA798ABE8
:10258000611571058105910509F4DDC061307105A2
:102590008105910509F4BEC06F3F7F4F8F4F9F4F5C
:1025A00009F4FEC029A93AA94BA95CA9223031053A
:1025B0004105510508F4AEC0F1018789908DA18DC8
:1025C000B28D281739074A075B0708F0A3C000E05F
:1025D00010E0980149A95AA96BA97CA9C1010E94E0
:1025E000BB07811151CED1011F964D915D916D9127
:1025F0007C91529757968D919D910D90BC91A02DF5
:102600008C019D0102501109210931094017510720
:102610006207730760F44F5F5F4F6F4F7F4FF101A9
:102620004787508B618B728B2481216024832DA579
:102630003EA54FA558A9281739074A075B0708F098
:1026400082C089819A8129AB3AAB4BAB5CAB8ECF10
:10265000DD24D394D0CE86E0D82E002309F4E0CD3B
:1026600086E0D82EDDCD89A59AA59C01EB8DFC8D49
:10267000DF0113FD17CFDC019F964D915D916D91A8
:102680007C91D2972ECEF701448B558B668B778B3E
:10269000D501C4019170AA27BB27892B8A2B8B2BCC
:1026A00009F4C1CDE9A5FAA59A01AB01225031097F
:1026B000410951098789908DA18DB28D0297A10999
:1026C000B109281739074A075B0720F5A185B285AC
:1026D0000E94702803A514A525A536A5060F171F6F
:1026E000281F391F011511052105310599F049E011
:1026F000B694A794979487944A95D1F7800E911E2B
:10270000A21EB31ED70158968D929D92AD92BC9297
:102710005B9789CD12E0D12E83CD80FD7CCE89A53B
:102720009AA5FC0147A550A961A972A9EB8DFC8D62
:10273000D4CD24E0D22E74CD9F964D915D916D91B4
:102740007C91D297CACD89A59AA5DC019F964D911F
:102750005D916D917C91D297B1E04B1A510861085F
:10276000710884169506A606B70681F0B501A40186
:102770000E945E04282F89A59AA5FC0143865486F1
:1027800065867686222371F2D22E4ACDDC011B9615
:102790004D925D926D927C921E97EB8DFC8D9DCD3E
:1027A000DD24D3943DCD3F924F925F926F927F9202
:1027B0008F929F92AF92BF92CF92DF92EF92FF9251
:1027C0000F931F93CF93DF93CDB7DEB72A970FB642
:1027D000F894DEBF0FBECDBF7C013B015A01490119
:1027E000F90111821082BE016F5F7F4F0E94D603F4
:1027F000382E81117CC0F7013784311078C086856E
:1028000080FF3CC180899189A289B3894285538523
:1028100064857585481B590B6A0B7B0B850130E07D
:1028200020E0401751076207730708F416C1A1148E
:10283000B10409F45CC0412C22E0522EE981FA81F6
:10284000FE83ED83AC01BD01517066277727452BD0
:10285000462B472B09F464C0F701408D518D628DE2
:10286000738D91706201C81AD90AAC14BD0408F4C2
:102870006501ED81FE8107A510A921A932A90417E0
:1028800015072607370769F0CF010E945E04811102
:10289000EFC0E981FA81FE83ED83F7018089918998
:1028A00091706D817E816D5C7F4F680F791FA601ED
:1028B000C3010E940004AC18BD08F401808191811D
:1028C0008C0D9D1D918380836C0C7D1CF70180898C
:1028D0009189A289B3898C0D9D1DA11DB11D808B8D
:1028E000918BA28BB38BA114B10409F0A7CF832DD8
:1028F0002A960FB6F894DEBF0FBECDBFDF91CF9101
:102900001F910F91FF90EF90DF90CF90BF90AF900D
:102910009F908F907F906F905F904F903F90089521
:10292000ED81FE810185128501501109AC01BD01C7
:1029300029E076956795579547952A95D1F7042311
:102940001523F7010115110509F45AC06489758929
:10295000868997899B01AC012250310941095109AF
:10296000ED81FE818789908DA18DB28D0297A1099D
:10297000B109281739074A075B0708F05EC0C18410
:10298000D284D6010E94702823A534A545A556A55A
:10299000620F731F841F951F6115710581059105D5
:1029A00009F44BC0AB01BC01400F511F611D711DEB
:1029B000A114F2E0BF0608F446C09501232F332787
:1029C00026953C832B83C901800F911FC816D90619
:1029D00028F4C601801B910B9C838B830B811C8187
:1029E0009A01AB01B301ED81FE8181810E947C03DC
:1029F00081113EC0CB80DC80DC2CCC24DD0C5BCF95
:102A0000892B8A2B8B2B59F566817781808591855F
:102A1000623071058105910580F06F3FFFEF7F0700
:102A20008F079F0729F1F701648B758B868B978B36
:102A3000E981FA81FE83ED838DCF82E0F7018787FC
:102A4000F2E03F2E54CFF701408F518F628F738F8A
:102A500080899189A289B38904CF5A01E8CE44893B
:102A6000558966897789808191810E94DE08D0CF5F
:102A700081E0F70187873324339439CF87E0382EFC
:102A800036CF2F923F924F925F926F927F928F92AA
:102A90009F92AF92BF92CF92DF92EF92FF920F93ED
:102AA0001F93CF93DF93CDB7DEB728970FB6F89477
:102AB000DEBF0FBECDBF7C013B015A013C832B839F
:102AC000F90111821082BE016F5F7F4F0E94D60311
:102AD000982E811193C0F701978491108FC026859D
:102AE00021FFC1C180899189A289B389AC01BD014F
:102AF0004A0D5B1D611D711D481759076A077B0749
:102B000008F475C1A114B10409F475C08824839434
:102B1000E981FA81F887EF83AC01BD015170662726
:102B20007727452B462B472B09F482C0F701208CD1
:102B3000318C428C538CEF81F88547A550A961A94F
:102B400072A99C013170C12C92E0D92EC21AD30A0D
:102B5000AC14BD0408F46501241635064606570674
:102B600081F0B201A1018F8198850E945E048111DC
:102B700074C1E981FA81F887EF83F70120893189EF
:102B800031708F819885C396A601B301820F931F80
:102B90000E940004E981FA818382AC18BD08EB81B0
:102BA000FC81808191818C0D9D1D918380836C0CB3
:102BB0007D1CF70180899189A289B3898C0D9D1DA7
:102BC000A11DB11D808B918BA28BB38B4285538548
:102BD00064857585481759076A077B0710F4AC01AF
:102BE000BD01F7014287538764877587A114B1043B
:102BF00009F08ECF26852064F7012687892D289637
:102C00000FB6F894DEBF0FBECDBFDF91CF911F91FD
:102C10000F91FF90EF90DF90CF90BF90AF909F907B
:102C20008F907F906F905F904F903F902F9008957E
:102C3000EF81F8850185128501501109AC01BD01B4
:102C4000E9E07695679557954795EA95D1F704237E
:102C500015230115110509F044C0F701892B8A2BB2
:102C60008B2B09F0C8C02680378040845184211402
:102C700031044104510409F405C15F924F923F921F
:102C80002F9220E132E03F932F930E943C260F9039
:102C90000F900F900F900F900F90F1E02F163104CE
:102CA0004104510409F482C0FFEF2F163F064F067E
:102CB0005F0609F4D2C0F701248A358A468A578A0A
:102CC000E981FA81F887EF83F70186819781A085F2
:102CD000B185892B8A2B8B2B21F426823782408663
:102CE0005186EF81F88547A550A961A972A9F7011E
:102CF000808D918DA28DB38D481759076A077B0788
:102D000009F49BC0F70124893589468957892250E7
:102D1000310941095109EF81F8858789908DA18D8D
:102D2000B28D0297A109B109281739074A075B0735
:102D3000E8F5C184D284D6010E94702823A434A46B
:102D400045A456A4260E371E481E591E21143104D0
:102D50004104510459F1200E311E411C511CA11493
:102D6000F2E0BF0648F19501232F332726953E83D5
:102D70002D83C901800F911FC816D90628F4C601FA
:102D8000801B910B9E838D830D811E81A201910179
:102D9000B301EF81F88581810E948D0381115DC0AF
:102DA000CD80DE80DC2CCC24DD0CF7CE82E0F70178
:102DB000878752E0952E22CFF70180899189A289D9
:102DC000B3894285538564857585EF81F8858417BD
:102DD0009507A607B70708F049C047A550A961A9FC
:102DE00072A9F701208E318E428E538EAACE5C01DD
:102DF000A094B09487CE4489558966897789C701A4
:102E00000E94BE0A1B012C015F924F923F922F92AB
:102E100020E132E03F932F930E943C260F900F90C9
:102E20000F900F900F900F90211431044104510422
:102E300009F033CFF7012685DECEEF81F885838157
:102E4000882309F45FCFCF010E940A04811105C0D5
:102E5000E981FA81F887EF8355CF81E0F701878711
:102E600099249394CBCE87E0982EC8CE238121114C
:102E700012C0EF81F88527A630AA41AA52AAB20152
:102E8000A101AFCF40E050E0BA01C7010E94BE0AE5
:102E90001B012C01B9CFCF010E940A048111DDCFA3
:102EA000E981FA81F887EF83F70180899189A28906
:102EB000B389DFCFCF92DF92EF92FF920F931F93F0
:102EC000CF93DF9300D0CDB7DEB78C01BE016F5F2B
:102ED0007F4F0E94D60381115CC0D8011E969C9141
:102EE0001E9796FF56C05C964D915D916D917C91B9
:102EF0005F9789819A81FC01C7A4D0A8E1A8F2A8B4
:102F00004C155D056E057F0531F00E945E04811150
:102F100040C089819A81D8019096ED91FC9191975A
:102F200023852062238716962D913C91179716963C
:102F30004D915D916D917C911997ED90FC90338F3F
:102F4000228FD7012C91233029F4AB0166277727F4
:102F5000448B558BD8011A964D915D916D917C9162
:102F60001D97448F558F668F778F168A178A21E2B7
:102F7000208F28E4218F128A138A21E0FC01238309
:102F80000E942F10D8011E969C911E979F7B1E9623
:102F90009C930F900F90DF91CF911F910F91FF9015
:102FA000EF90DF90CF9008950F931F93CF93DF930F
:102FB00000D0CDB7DEB78C010E945A17882339F0B4
:102FC0000F900F90DF91CF911F910F910895BE0147
:102FD0006F5F7F4FC8010E94D6038111F1CFF801C6
:102FE000118210820F900F90DF91CF911F910F915E
:102FF00008950F931F93CF93DF93CDB7DEB7AC97B0
:103000000FB6F894DEBF0FBECDBF9CA78BA740E0E4
:10301000BE01675D7F4FCE018B960E94EC04882332
:1030200059F0AC960FB6F894DEBF0FBECDBFDF915E
:10303000CF911F910F91089589A59AA59A838983AD
:103040006BA57CA5CE0101960E94FF0D811118C0D1
:1030500098A597FD19C09D8194FF14C0AB8DBC8DC0
:10306000E9A5FAA55A964D915C915B9770E060E0F6
:1030700090819330A1F0438B548B658B768BD1CFAD
:10308000843079F685E0CDCFE9A5FAA54F81588542
:1030900069857A85438B548B658B768BC2CF54962A
:1030A0000D911C9130E020E0980111270027402B62
:1030B000512B622B732BDFCF4F925F926F927F92D7
:1030C0009F92AF92BF92CF92DF92EF92FF920F93B7
:1030D0001F93CF93DF93CDB7DEB7C254D1090FB69C
:1030E000F894DEBF0FBECDBF23969FAF8EAF239760
:1030F0006B01DC011C9240E0BE01615C7F4FCE01A0
:103100008F5B9F4F0E94EC04B82E81119CC02196CA
:10311000EEADFFAD2197FA83E98343885488658833
:1031200076884F82588669867A86411451046104F4
:10313000710409F44BC176018E010E5C1F4F4EE203
:10314000A42E5FE2952E40E250E060E070E0CE01F8
:1031500001960E94DF09811132C14F89588D698D16
:103160007A8D2196EEADFFAD219787A590A9A1A9F3
:10317000B2A9481759076A077B0749F0CF010E9497
:103180005E0481111CC12196EEADFFAD2197AB8D80
:10319000BC8D5A964D915C915B9770E060E08081A8
:1031A000833061F454968D919C91B0E0A0E0DC01F5
:1031B00099278827482B592B6A2B7B2B4F835887BD
:1031C00069877A8740E050E0BA01CE0101960E94FB
:1031D000DF09882331F1F3C0EB8DFC8D428D538DD7
:1031E00070E060E02196AEADBFAD21978C91833049
:1031F00059F484899589B0E0A0E0DC0199278827FB
:10320000482B592B6A2B7B2B4415550566057705F2
:1032100091F170E060E0CE0101960E94270C8111CF
:1032200008C070E060E0CE0101960E94900F8823F4
:1032300099F22396EEADFFAD2397B82E843011F4AA
:1032400082E0B82E10828B2DCE5BDF4F0FB6F89444
:10325000DEBF0FBECDBFDF91CF911F910F91FF90C9
:10326000EF90DF90CF90BF90AF909F907F906F9046
:103270005F904F9008951AAA8F89988DA98DBA8D65
:10328000892B8A2B8B2B09F488C090E080E030E0FA
:1032900020E008C0800F911FDC016C93CA012B3025
:1032A0003105B9F02F5F3F4F61916032C1F3653056
:1032B00009F465EEAC014F5F5F4F2930310551F7DE
:1032C000D801A80FB91FAC92DC011296CA01AD015A
:1032D000E1CF800F911FFC0110828AA9DE01D396F5
:1032E000F0E0E0E0811102C064C0F9019F012F5FAE
:1032F0003F4F8D918111F9CFCF010496E816F90661
:1033000008F44FC03A96A9E2B0E0AC0FBD1FEA0F37
:10331000FB1FC70101972396AEADBFAD2397A80F42
:10332000B91F42914C93E017F107A1F7E21AF30A93
:10333000B1E0EB1AF1082396EEADFFAD2397EE0D49
:10334000FF1D90824F80588469847A84411451040F
:103350006104710409F0F7CE23968EAD9FAD2397DB
:10336000CE14DF04B9F1582F492F07C023968EAD34
:103370009FAD239779015E2F4F2F97012F5F3F4F0E
:10338000E52FF42FE80EF91ED7018C9181932C15AF
:103390003D0560F3B12C108256CF83E0E816F104AE
:1033A00038F62396EEADFFAD239791E1B92E10824A
:1033B0004ACFF3E0EF16F10408F0BACFF2CF23962C
:1033C000EEADFFAD2397B82E10823DCF23968EAD84
:1033D0009FAD2397FC018FE28193108234CF0F932E
:1033E0001F93CF93DF93CDB7DEB7AC970FB6F894AA
:1033F000DEBF0FBECDBF9CA78BA7162F042F42E0C8
:10340000BE01675D7F4FCE018B960E94EC0488233E
:1034100059F0AC960FB6F894DEBF0FBECDBFDF916A
:10342000CF911F910F91089589A59AA59A838983B9
:103430006BA57CA5CE0101960E94FF0D8111E9CFFD
:1034400088A5807A89F4EB8DFC8D8385482F4127F0
:10345000402347724827438789A59AA521E0FC01AC
:1034600023830E942F10D5CF86E0D3CF0F931F93D5
:10347000CF93DF93CDB7DEB7AC970FB6F894DEBF2E
:103480000FBECDBF9CA78BA78B0142E0BE01675D3D
:103490007F4FCE018B960E94EC04882359F0AC96A6
:1034A0000FB6F894DEBF0FBECDBFDF91CF911F9155
:1034B0000F91089589A59AA59A8389836BA57CA508
:1034C000CE0101960E94FF0D8111E9CF88A5807A77
:1034D000D9F4F80124813581C901B0E0A0E0DC0114
:1034E0009927882746815781842B952BEB8DFC8D5E
:1034F000868B978B318F208F89A59AA521E0FC01BF
:1035000023830E942F10CBCF86E0C9CFCF92DF92CA
:10351000EF92FF921F93CF93DF93CDB7DEB7AC97B7
:103520000FB6F894DEBF0FBECDBF9CA78BA76B0173
:103530007A0140E0BE01675D7F4FCE018B960E940D
:10354000EC04182F811153C0C114D104B9F089A51E
:103550009AA59A8389831F82188619861A8640E065
:1035600050E0BA01CE0101960E94DF09882309F4D8
:1035700052C0843009F04DC0F6011082E114F1040C
:10358000B1F1E9A5FAA5478D50A161A172A187A566
:1035900090A9A1A9B2A9481759076A077B0739F072
:1035A000CF010E945E04811134C0E9A5FAA5808193
:1035B000833009F44FC0843049F187E290E0F396FC
:1035C000E80FF91F82819381B0E0A0E0BA2FA92F04
:1035D000982F88272181822BBA2FA92F982F8827EF
:1035E0002081822BF70180839183A283B383812F73
:1035F000AC960FB6F894DEBF0FBECDBFDF91CF9172
:103600001F91FF90EF90DF90CF90089584E690E0B7
:10361000D6CF182FECCF61E070E0CE0101960E946A
:10362000900F8111A6CFEB8DFC8D9F01255F3F4F41
:10363000D60181918D932E173F07D9F7F601138696
:103640003B968291803209F099CF1082CE16DF0628
:10365000C1F794CF83E490E0B2CFFF920F931F9312
:10366000CF93DF93CDB7DEB7C254D1090FB6F8942C
:10367000DEBF0FBECDBF23969FAF8EAF239742E034
:10368000BE01615C7F4FCE018F5B9F4F0E94EC04B7
:10369000F82E81113CC021968EAD9FAD21979A8363
:1036A00089832396AEADBFAD23978C91803208F409
:1036B000A6C0FD01319610E000E001C08C01C801F8
:1036C000019621912032D0F7009709F498C0FD01AE
:1036D000E00FF11F2081203241F027C098012150D6
:1036E00031098291803211F5890101151105B1F777
:1036F0001F82188619861A8640E050E0BA01CE0172
:1037000001960E94DF09F82E882309F45EC08F2DF0
:10371000CE5BDF4F0FB6F894DEBF0FBECDBFDF919B
:10372000CF911F910F91FF9008958C0119A6BE01B2
:10373000675D7F4F50E040E04F5F5F4F2D9130E07D
:10374000C901815691094A9778F520523109E1E57E
:10375000F1E08AE28217130621F181918111FACFFB
:103760004C305105F1F0FB012193BF014017510787
:1037700018F34B30510589F0E9E2F0E0EC0FFD1F42
:10378000E40FF51F29E230E02C0F3D1F255F3F4F6E
:1037900080E281932E173F07E1F789A5853E09F066
:1037A000A7CF86E0F82EB3CF2038310528F021527C
:1037B0003F4FF901208130E02115310591F322328C
:1037C000310529F686E0F82EA2CF61E070E0CE0147
:1037D00001960E94900F811115C08B8D9C8D012B3D
:1037E000B1F525EEFC01208321968EAD9FAD21978A
:1037F00021E0FC0123830E942F10F82E88CF10E0D7
:1038000000E076CF8430C9F7012B09F480CFCE01D8
:1038100001960E94E90FF82E811179CF8B8D9C8D36
:103820009C01205E3F4FFC011192CF01E217F3078C
:10383000D1F7EB8DFC8D88E083874BE050E0BE0133
:10384000675D7F4F8B8D9C8D0E940004CDCF4BE038
:1038500050E0BE01675D7F4F0E940004C5CFCF934B
:10386000DF93D82FC62F50E040E062E08091100136
:10387000909111010E945C0382E00E9440258D2FEF
:103880000E9440258C2F0E94402541E050E062E0DC
:103890008091100190911101DF91CF910C945C0304
:1038A000CF93C82F50E040E062E0809110019091EA
:1038B00011010E945C0383E00E9440258C2F0E942E
:1038C00040258FEF0E944025C82F41E050E062E084
:1038D00080911001909111010E945C038C2FCF9177
:1038E00008951F93CF93DF93182FD62FC42F50E046
:1038F00040E062E080911001909111010E945C0310
:1039000085E00E944025812F0E9440258D2F0E9436
:1039100040258C2F0E94402541E050E062E08091DC
:10392000100190911101DF91CF911F910C945C03D4
:10393000CF93C82F50E040E062E080911001909159
:1039400011010E945C038C2F0E9440258FEF0E9482
:103950004025C82F41E050E062E080911001909135
:1039600011010E945C038C2FCF910895CF93DF93B8
:10397000C82F42E062E080910001909101010E9415
:103980001D0344E060E080911001909111010E94BC
:103990001D0350E040E062E0809110019091110120
:1039A0000E945C0380EC0E94402541E050E062E010
:1039B00080911001909111010E945C032AE62A95E2
:1039C000F1F700C050E040E062E08091100190917A
:1039D00011010E945C0382E00E94402588E20E945F
:1039E000402585E00E94402583EE0E94402580E42A
:1039F0000E94402583E00E94402541E050E062E0C3
:103A000080911001909111010E945C038AE20E9452
:103A1000501C8C1761F1C5E0D0E041E050E060E05F
:103A200080911001909111010E945C038FEF94E34B
:103A30002CE0815090402040E1F700C0000050E0B1
:103A400040E060E080911001909111010E945C03C0
:103A50008FEF94E32CE0815090402040E1F700C0CC
:103A600000002197D1F680E0DF91CF91089560E0CA
:103A70008CE00E942F1C60E08DE00E942F1C60E60D
:103A800080E60E942F1C60E680E70E942F1C60E009
:103A90008FE00E942F1C41E050E060E08091100117
:103AA000909111010E945C0381E0DF91CF91089514
:103AB00062E080910001909101010E944F0391E02A
:103AC000811190E0892F089580EA0E94981C982F18
:103AD000947581E0943509F080E00895DF92EF92CB
:103AE000FF920F931F93CF93DF930F92CDB7DEB763
:103AF0007C0180EB0E94981CD82E8983898186FDE9
:103B000073C0898114E987FF6DC050E040E062E036
:103B100080911001909111010E945C03812F0E94FD
:103B200040258FEF0E94402528E0829FC00111248C
:103B3000F701918380838FEF0E94402582958695BF
:103B40008770F70120813181282B318320838FEF0B
:103B50000E9440258FEF0E9440258FEF0E94402554
:103B60008F70282F220FF7019281917E922B9283E2
:103B7000298123FB90F99283882391F087010D5FBF
:103B80001F4FF4E0EF0EF11C8150E80EF11C8FEF97
:103B90000E944025F80181938F01EE15FF05B9F7CA
:103BA00050E040E062E080911001909111010E948C
:103BB0005C03898140E086FD10C062E08CE20E94D7
:103BC000711C8D2D87708F5F0F90DF91CF911F91AA
:103BD0000F91FF90EF90DF90089561E08CE20E94DA
:103BE000711CEFCF80E0F0CF10E98FCFBF92CF9262
:103BF000DF92FF920F931F93CF93DF930F92CDB776
:103C0000DEB76C0180EA0E94981C898350E040E096
:103C100060E080911001909111010E945C03898104
:103C200082FF89C0898184FF6BC08981B12C86FDA8
:103C30005CC014E444E0B42E50E040E062E08091C7
:103C40001001909111010E945C03812F0E94402578
:103C5000F6018081918196958795969587959695A1
:103C600087950E944025F60180818295880F807E8D
:103C70000E94402580E00E94402580E00E9440256F
:103C8000F6018281F82EF694FF2DFF70FF2E80FF43
:103C90003BC08F2F80640E94402541E050E062E0ED
:103CA00080911001909111010E945C03F5E0FA955A
:103CB000F1F7000050E040E062E080911001909147
:103CC00011010E945C038B2D8068B11003C081E854
:103CD000BB24B3940E94402541E050E062E0809113
:103CE0001001909111010E945C038B2D0F90DF91C8
:103CF000CF911F910F91FF90DF90CF90BF900895CB
:103D000012E432E0B32E98CF8F2F0E944025FF207F
:103D100021F286010D5F1F4F84E0C80ED11CFA947A
:103D2000CF0CD11CF80181918F010E9440250C1508
:103D30001D05C1F7B2CF10E4B12C7ECF29988FEFCB
:103D40000E94402582E38093C90204C08091C90289
:103D5000882341F08FEF0E9440258F3FB9F781E023
:103D600090E00895299A85E50E94402590E080E042
:103D70000895EF92FF920F931F93CF93DF93C82F75
:103D8000142F052FF62EE72E87FD64C0CC3009F4E2
:103D900043C0299A85E50E9440250E949E1EDFEFC0
:103DA000892B91F18C2F80640E9440258E2D0E94DA
:103DB00040258F2D0E944025802F0E944025812F75
:103DC0000E94402585E9C11150C00E94402580E72E
:103DD00093E09F938F930E943C260F900F90CAE030
:103DE0008FEF0E944025D82F87FF02C0C150C1F736
:103DF0001F92DF938CE593E09F938F930E943C2664
:103E00000F900F900F900F908D2FDF91CF911F91FA
:103E10000F91FF90EF9008958CE40E9440258E2D25
:103E20000E9440258F2D0E944025802F0E94402512
:103E3000812F0E94402581E00E94402580E793E089
:103E40009F938F930E943C268FEF0E9440250F90F6
:103E50000F90C5CF40E050E0BA0187E30E94B91E41
:103E6000D82F823088F6CF7791CF87E8C83009F411
:103E7000ACCF81E0AACF0F931F93CF93DF93EC01D8
:103E80008B0184E18093CA0204C08091CA02882316
:103E9000C1F08FEF0E9440258F3FB9F38E3F89F428
:103EA000B801CE010E94F7248FEF0E9440258FEFCA
:103EB0000E94402581E090E0DF91CF911F910F910A
:103EC000089590E080E0DF91CF911F910F910895C8
:103ED0000F931F93CF938C01C62F82E38093C90267
:103EE00004C08091C902882321F18FEF0E944025F0
:103EF0008F3FB9F78C2F0E944025CD3FC9F060E07D
:103F000072E0C8010E94E5248FEF0E9440258FEFE8
:103F10000E9440258FEF0E944025282F2F7181E0BD
:103F200090E0253039F080E0CF911F910F910895F6
:103F300081E090E0CF911F910F910895CF92DF9291
:103F4000EF92FF920F931F93CF93DF9300D000D097
:103F5000CDB7DEB78AE08093CA028091CA02811190
:103F6000FCCF809118011AE081FD15C08FEF0E94EF
:103F700040251150D9F7299840E050E0BA0180E07F
:103F80000E94B91E182F8130A9F01092C802299AF8
:103F900085E50E944025809118010F900F900F90A9
:103FA0000F90DF91CF911F910F91FF90EF90DF90D5
:103FB000CF90089584E68093CA024AEA51E060E017
:103FC00070E088E00E94B91E813009F046C0CE0141
:103FD00001966C017E0195E0E90EF11C86018FEFE0
:103FE0000E944025F80181938F01EE15FF05B9F776
:103FF0008B81813051F68C818A3A39F609C040E0D4
:1040000050E060E070E489EA0E94B91E882321F044
:104010008091CA028111F3CF8091CA02882309F4EA
:10402000B4CF40E050E0BA018AE30E94B91E81118A
:10403000ACCF8FEF0E944025F60181936F01EE1601
:10404000FF06B9F7898186FF3AC08CE08093C802E9
:10405000299A85E50E9440252CC040E050E0BA0135
:1040600089EA0E94B91E01E0823058F402E019EAA0
:1040700008C040E050E0BA01812F0E94B91E882399
:1040800021F08091CA028111F4CF8091CA02882365
:1040900009F47BCF40E052E060E070E080E10E94F4
:1040A000B91E811172CF0093C802299A85E50E943A
:1040B0004025809118018E7F809318016CCF84E099
:1040C0008093C802299A85E50E944025F2CF80910D
:1040D00018010895FF920F931F93CF93DF938C01E4
:1040E000E9012097E1F18091180180FD40C08091A5
:1040F000C80283FD07C029E0440F551F661F771FC4
:104100002A95D1F791E1F92EC230D10510F082E164
:10411000F82E8F2D0E94B91E882379F0C1E0299ACC
:1041200085E50E9440258C2FDF91CF911F910F9143
:10413000FF9008951E5F219711F160E072E0C801C1
:104140000E943B1F892BB1F7C1E082E1F812E7CF53
:1041500040E050E0BA018CE00E94B91EE0CFC4E01C
:104160008C2FDF91CF911F910F91FF900895C3E0A5
:104170008C2FDF91CF911F910F91FF900895C0E098
:10418000E4CFCF92DF92EF92FF920F931F93CF93E2
:10419000DF938C016A017B01E901209709F484C057
:1041A0008091180180FD8AC08091180182FD90C025
:1041B0008091C80283FD07C089E0CC0CDD1CEE1C99
:1041C000FF1C8A95D1F7C130D10509F445C0FF9293
:1041D000EF92DF92CF92DF93CF9389EB92E09F93A0
:1041E0008F930E943C268091C80286702DB73EB7FF
:1041F000285F3F4F0FB6F8943EBF0FBE2DBF811111
:104200004CC0B701A60189E10E94B91E882391F034
:1042100011E0299A85E50E944025812FDF91CF91F9
:104220001F910F91FF90EF90DF90CF9008951E5F48
:10423000219731F06CEFC8010E94681F892BB9F7F4
:104240006DEF90E080E00E94681F892B09F311E078
:10425000CD2BF9F610E0DDCFFF92EF92DF92CF92F7
:1042600083EE92E09F938F930E943C26B701A601B4
:1042700088E10E94B91E0F900F900F900F900F9041
:104280000F908111C5CF6EEFC8010E94681F11E029
:10429000892B09F4BECF10E0BCCFAE0170E060E026
:1042A00087E90E94B91EADCF80E493E09F938F937E
:1042B0000E943C260F900F9014E0AFCF84E293E071
:1042C0009F938F930E943C260F900F9013E0A5CFF1
:1042D00089E093E09F938F930E943C260F900F906C
:1042E00012E09BCF8F929F92AF92BF92CF92DF92BC
:1042F000EF92FF920F931F93CF93DF93CDB7DEB76B
:1043000060970FB6F894DEBF0FBECDBF8B019091C2
:10431000180190FD0BC08A3318F084E0F82E08C015
:10432000E82FF0E0E85DF54D0C945B2893E0F92E62
:104330008F2D60960FB6F894DEBF0FBECDBFDF9114
:10434000CF911F910F91FF90EF90DF90CF90BF9092
:10435000AF909F908F900895FB01408150E070E0F6
:1043600060E02CE1440F551F661F771F2A95D1F797
:10437000828190E0B0E0A0E0482B592B6A2B7B2B88
:1043800083819481A581B68139E0880F991FAA1F86
:10439000BB1F3A95D1F7842B952BA62BB72BAC01DD
:1043A000BD01746881E30E94B91E882309F433C2F9
:1043B000FF24F394299A85E50E944025B9CFFB019B
:1043C0004381548165817681A9E0440F551F661FA2
:1043D000771FAA95D1F78181928101979170B0E002
:1043E000A0E0482B592B6A2B7B2B808190E0B0E01A
:1043F000A0E02CE1880F991FAA1FBB1F2A95D1F7B7
:10440000842B952BA62BB72BAC01BD01706881E3E3
:104410000E94B91E8111CCCF8FEF0E9440258EEFF4
:104420000E944025F801E780F084C180D280C11449
:10443000D10409F454C2CE0CDF1CF70181917F0135
:104440000E944025EC14FD04C1F7F801818192819E
:1044500002E012E0081B190B31F08FEF0E9440259B
:1044600001501109D1F78FEF0E9440258F71FF2471
:10447000F394853009F09ECFF12C9CCFFB01438152
:1044800054816581768139E0440F551F661F771F7F
:104490003A95D1F78181928101979170B0E0A0E0C7
:1044A000482B592B6A2B7B2B808190E0B0E0A0E059
:1044B000ECE1880F991FAA1FBB1FEA95D1F7842B47
:1044C000952BA62BB72BAC01BD01706880E30E9431
:1044D000B91E81116DCF84E68093CA0205C0809118
:1044E000CA02882309F464CF8FEF0E9440258F3FD2
:1044F000B1F38E3F09F05CCFF801E780F084C18012
:10450000D280C114D10409F4EDC1CE0CDF1C8FEFB1
:104510000E944025F70181937F01CE16DF06B9F78F
:10452000F8018181928102E012E0081B190B09F465
:10453000A3CF8FEF0E94402501501109D1F7F12C34
:1045400039CF40E050E0BA018DE80E94B91E8111D8
:104550002FCF8FEF0E94402560E470E021C040E043
:1045600050E0BA018AE30E94B91E811121CF78017F
:10457000F4E0EF0EF11C8FEF0E944025F8018193CB
:104580008F01EE16FF06B9F7F12C14CF40E050E092
:10459000BA018AE00E94B91E81110ACF60E170E081
:1045A000C8010E943B1FFF24F394892B09F402CF1A
:1045B000F12C00CF40E050E0BA0189E00E94B91E22
:1045C0008111F6CEEBCF8091C802FB018083F12CE4
:1045D000AFCE80911801816080931801F12CA8CE94
:1045E0008091C802867009F0C6C0FF24F394A0CE63
:1045F0008091C80240E050E0BA0182FF86C08DE899
:104600000E94B91E8111D4CE8FEF0E94402560E137
:1046100070E0CE0101960E943B1F892B09F4C8CEA1
:1046200060E3F62E8FEF0E944025FA94F110FACF46
:104630002B8522952F7080E190E0A0E0B0E004C0CF
:10464000880F991FAA1FBB1F2A95D2F7F8018083F4
:104650009183A283B383AECE40E050E0BA0189E0FB
:104660000E94B91E8111A4CE60E170E0CE010196D6
:104670000E943B1F892B09F49BCE898182958695E8
:1046800086958370813009F4D9C089858295869595
:1046900086958370288530E0220F331F220F331F49
:1046A000820F932F911D01962F8130E0322F222708
:1046B000330F330F22273C70820F931FB0E0A0E02E
:1046C0002E812F703B85331F3327331F230F2E5F1F
:1046D0003A85330F3670230F2950330B04C0880FEF
:1046E000991FAA1FBB1F2A95D2F7F80180839183D7
:1046F000A283B383F12C5ECE0E949E1EFF24F3940E
:10470000892B09F457CEF12C55CE89E00E94B91EB1
:1047100081114ECE60E170E0CE0101960E943B1FF8
:10472000892B09F445CE8B8590E02C853091C80209
:1047300031FFACC0880F991F8E779927221F22273F
:10474000221F30E02F5F3F4F820F931F2E8522954F
:104750002695269523702150330B02C0880F991F90
:104760002A95E2F7B0E0A0E0F80180839183A2836C
:10477000B383F12C1FCEBE016F5F7F4F83E30E9496
:104780007221F82E811131CF898182958695869587
:1047900083709B859074892B09F427CFF8014081A1
:1047A00051816281738184809580A680B7808091D9
:1047B000C80283FD0EC0F9E0440F551F661F771F26
:1047C000FA95D1F7A9E0880C991CAA1CBB1CAA95E4
:1047D000D1F780E20E94B91E811107CFB501A40173
:1047E00081E20E94B91E811100CF40E050E0BA0181
:1047F00086E20E94B91E8111F8CE88EB8093C9022F
:104800008FEF0E9440258F3F09F492CD8091C9021D
:104810008111F6CFEACE8FEF0E9440258EEF0E94E5
:104820004025F80181810E94402501E012E08FEFD0
:104830000E94402501501109D1F715CE898590E0DD
:10484000982F88272A85280F392F311D888590E0D9
:10485000B0E0A0E0DC019927882788279927AF736B
:10486000BB270196A11DB11D820F931FA11DB11D74
:104870005AE0880F991FAA1FBB1F5A95D1F7F8015C
:1048800080839183A283B383F12C94CD422F50E097
:10489000440F551F440F551F440F551F487155278E
:1048A000229526952770240F352F311D2F5F3F4FFE
:1048B00095958795959587958F7199270196289F4E
:1048C000A001299F500D389F500D112470E060E029
:1048D000F8014083518362837383F12C6BCD02E036
:1048E00012E0BBCD02E012E024CE8091CA02882300
:1048F00019F081508093CA028091C902882319F06F
:1049000081508093C90280911801897F809318019A
:104910000895CF93DF93C42FC370C62B892B09F062
:1049200042C0C064D42FD695D69550E040E063E0F5
:1049300080911001909111010E945C0350E040E0D1
:1049400064E080911001909111010E945C0350E09D
:1049500040E065E080911001909111010E945C039C
:10496000249884B1886284B9CCBDDDBD8DB51F9219
:104970008F9381E993E09F938F930E943C268EB59D
:104980001F928F9387E793E09F938F930E943C261B
:104990008DB79EB708960FB6F8949EBF0FBE8DBF19
:1049A000DF91CF910895C065BDCF9DB5843020F0D3
:1049B000282F26952695922B9DBD9CB583709C7FB4
:1049C000892B8CBD08951CBC0895FC01680F791FCC
:1049D00080818EBD0DB407FEFDCF81818EBD0DB4EB
:1049E00007FEFDCF3296E617F70791F70895FC0111
:1049F000680F791F8FEF8EBD0DB407FEFDCF9EB5FA
:104A000090838EBD0DB407FEFDCF9EB59183329687
:104A1000E617F70781F70895EF92FF920F931F9320
:104A2000CF93DF937C01A02FB0E02A0F3B1F12161B
:104A30001306FCF4B195A195B109F0E0E0E095E52D
:104A4000E617F7072CF4C7018E0F9F1FEC01988122
:104A50009EBD0DB407FEFDCF9EB5B7FD05C08A0112
:104A60000A0F1B1FE801988331961196E217F3078E
:104A700031F7DF91CF911F910F91FF90EF90089543
:104A80008EBD0DB407FEFDCF8EB508959091C00088
:104A900095FFFCCF8093C60090E080E00895809160
:104AA000C00087FFFCCF8091C60090E008959B0175
:104AB000AC01211581EE380741055105E1F082E096
:104AC0008093C00060E874E88EE190E00E9439288D
:104AD00021503109832F8093C5002093C40088E1C1
:104AE0008093C10086E08093C2006FE475E286E4A3
:104AF00095E20C948F281092C00020E180E0EBCF6B
:104B00009091C00095FFFCCF8093C60008958091DE
:104B1000C000807808958091C00087FFFCCF80910D
:104B2000C60008958A3019F48DE001D08AE0FF9321
:104B3000EF93E091CB02F091CC02309709F0099508
:104B4000EF91FF910895FC018591803011F0EADF2B
:104B5000FBCF0895FF27E0E230E247FF0CC041950C
:104B600097FF09C0EDE26095709580959095611D65
:104B7000711D811D911D27FF02C0219530E350E278
:104B8000AA27660F771F881F991FAA1FA41710F066
:104B9000A41B63955A95A9F7AA3008F0A95FA05DF8
:104BA000AF93F395611571058105910541F7ED32DC
:104BB00011F4EF93F395F21718F43F93F395FBCFAD
:104BC0008F91B0DFFA95E1F70895E991F991859118
:104BD000803021F0853219F0A5DFF9CF089520E06B
:104BE000E89455915532C1F3503311F468945591BE
:104BF0005A3348F4505390F3220F022E220F220F03
:104C0000200D250FF4CF0EF42195899199915336FB
:104C100019F3533729F1533559F1BC0188279927E6
:104C2000E8945C3621F489919991689455915436B1
:104C300039F446EF7EF077FF0DC08FEF9FEF0AC08B
:104C400055374AE039F0583540E121F0523642E01C
:104C500009F00895FF93EF937DDFEF91FF91B7CFB8
:104C6000FF93EF93FC0181918030B9F35BDFFBCFC1
:104C7000FF93EF9368DFF1CFDF93CF93CDB7DEB72C
:104C80002596A3DFCF91DF910895F70181937F01EE
:104C90000895DF93CF93CDB7DEB72596E091CB0291
:104CA000F091CC02EF93FF93E5E4F6E2E093CB02C0
:104CB000F093CC02FF92EF92E990F99086DFF70132
:104CC0001082EF90FF90FF91EF91E093CB02F09371
:104CD000CC02CF91DF9108950B01DC01ED91FD91A4
:104CE0002227332744275527E8949AE001C03196BC
:104CF00060816032E1F3A8F16D3211F46894F7CF6E
:104D00006A3378F5603368F171F498E03196608128
:104D1000613248F1623611F492E003C0683719F449
:104D200090E1319660816132F0F0613608F06052B6
:104D30006053B8F06A3018F067506A3090F0691725
:104D400080F481E2771B08F4790F769557954795A3
:104D5000379527958A95B9F7260F381F481F581F92
:104D6000E0CF80E001C081E04EF4662720953095C9
:104D700040955095261F361F461F561FFE93EE93F3
:104D8000D0012D933D934D935D93112408958BE9AC
:104D900087BD82E084BD95E095BD80936E007894D8
:104DA00080E895E29093CC028093CB0260E071EEB4
:104DB00080E090E00E94572581E691E09F938F93D9
:104DC0000E943C262FEF33ED80E32150304080409D
:104DD000E1F700C0000043E061E08091080190919C
:104DE00009010E941D0343E062E080910801909157
:104DF00009010E941D0343E063E080910801909146
:104E000009010E941D0343E064E080910801909134
:104E100009010E941D0343E065E080910801909123
:104E200009010E941D0345E062E082E191E00E94D9
:104E30001D038FE391E09F938F930E943C2645E0F2
:104E400061E082E191E00E941D038AE191E09F937D
:104E50008F930E943C2642E060E081E090E00E9457
:104E6000892481E091E09F938F930E943C268EEEEF
:104E700090E09F938F930E943C2641E064EB72E0A8
:104E80008DEC92E00E949D10C82F8BED90E00E9467
:104E9000A325EC2FF0E0EE0FFF1FE75DFE4F8181B1
:104EA0008F9380818F931F92CF938EEC90E09F938E
:104EB0008F930E943C2684E00E94D52480E40E94C7
:104EC000B61C2DB73EB7205F3F4F0FB6F8943EBFDC
:104ED0000FBE2DBF882309F4B3C084EB90E00E947D
:104EE000A32510E0D0E0C0E0BB24B39401E068EE5D
:104EF000C62E63E0D62E7DEC972EEAE6EE2EE0E09D
:104F0000FE2EF4E6AF2E66C09E01369527953695A7
:104F1000279536952795A5ECB0E20E9461289295D9
:104F200082958F7089279F7089278C9D90018D9D18
:104F3000300D9C9D300D1124C217D30709F45BC0BE
:104F40009E013695279536952795ABE7B4E10E94EB
:104F5000612896958795A89E9001A99E300D1124F1
:104F6000C217D30709F467C061E0809108019091EE
:104F700009010E944F03882E811102C001111F5F99
:104F800062E080910801909109010E944F0363E063
:104F900080910801909109010E944F03082F81110F
:104FA00002C0B110115064E0809108019091090194
:104FB0000E944F0365E080910801909109010E94D1
:104FC0004F03B02E082D8FE19EE40197F1F700C04A
:104FD000000021960E94581D882309F495CF82E293
:104FE00095E00E946E1D882309F48ECF82E295E041
:104FF0000E94500289CF199D812D1124982F9695DA
:1050000096959695892F880F880F890F880F181B02
:10501000E12FF0E0E15EFE4F80801F928F92FF92C1
:10502000EF920E943C26882D0E9422020F900F9042
:105030000F900F90C8CF88E690E00E94A32594CFF0
:105040008EE890E00E94A3254CCF97FB072E16F424
:10505000009407D077FD09D00E947B2807FC05D07B
:105060003EF4909581959F4F0895709561957F4F7F
:105070000895A1E21A2EAA1BBB1BFD010DC0AA1F99
:10508000BB1FEE1FFF1FA217B307E407F50720F0B1
:10509000A21BB30BE40BF50B661F771F881F991F2C
:1050A0001A9469F760957095809590959B01AC0175
:1050B000BD01CF010895EE0FFF1F0590F491E02D83
:1050C0000994A29FB001B39FC001A39F700D811DE1
:1050D0001124911DB29F700D811D1124911D089501
:1050E0000E946128A59F900DB49F900DA49F800DF4
:1050F000911D11240895AA1BBB1B51E107C0AA1FD3
:10510000BB1FA617B70710F0A61BB70B881F991F68
:105110005A95A9F780959095BC01CD0108950F93FC
:105120001F93CF93DF93EC018B01892B51F4672BF5
:1051300041F4F0E0E0E0CF01DF91CF911F910F91BA
:1051400008956EE070E081E090E00E94D928FC01B3
:10515000892B79F380E883830115110571F013879A
:10516000028781E8838380912F0590913005892BF8
:1051700021F4F0933005E0932F052097E1F2D187D9
:10518000C08783818260838380913105909132054D
:10519000892B89F6F0933205E09331058091330530
:1051A00090913405892B39F6F0933405E09333055B
:1051B000C2CF0F931F93CF93DF93869F8001879F6A
:1051C000100D969F100D1124C8010E94F528EC01C6
:1051D000009729F0A80170E060E00E941F2ACE012C
:1051E000DF91CF911F910F9108950F931F93CF934C
:1051F000DF938230910510F482E090E0E091370572
:10520000F091380530E020E0B0E0A0E0309799F46C
:105210002115310509F447C0281B390B243031050D
:10522000C0F58A819B816115710571F1FB01938342
:105230008283FE0111C04081518102811381481790
:105240005907F8F04817590799F4109761F012962A
:105250000C93129713961C933296CF01DF91CF9146
:105260001F910F9108950093370510933805F4CFDF
:105270002115310519F04217530718F49A01BD01A1
:10528000EF01DF01F801C2CF909338058093370515
:10529000D0CFFE01E20FF31F819391932250310989
:1052A00039832883DACF2091350530913605232BB9
:1052B00041F420911B0130911C013093360520935D
:1052C00035052091190130911A012115310541F45C
:1052D0002DB73EB740911D0150911E01241B350B87
:1052E000E0913505F0913605E217F307A0F42E1B87
:1052F0003F0B2817390778F0AC014E5F5F4F24173A
:10530000350748F04E0F5F1F509336054093350523
:1053100081939193A2CFF0E0E0E09FCFCF93DF9312
:105320000097E9F0FC01329713821282C091370591
:10533000D0913805DE0130E020E02097A1F42081F3
:105340003181820F931F2091350530913605281742
:10535000390709F067C0F0933605E0933505DF9112
:10536000CF910895DA01AE17BF0708F040C012963A
:105370004D915C9113979D014115510599F7D90104
:105380001396FC93EE9312974D915D91A40FB51F68
:10539000EA17FB0779F4808191810296840F951FAB
:1053A000D90111969C938E938281938113969C933D
:1053B0008E931297B0E0A0E08A819B810097B9F5A7
:1053C000FE0181919191E80FF91F8091350590912F
:1053D00036058E179F0719F6109761F5109238055C
:1053E00010923705D0933605C0933505B8CFB383F7
:1053F000A28340815181840F951FA817B90771F4CA
:105400004E5F5F4F8D919C911197480F591F5183AB
:10541000408312968D919C9193838283211531054F
:1054200009F0ADCFF0933805E093370598CFDE0152
:10543000EC01C2CF13961C921E921297D3CFDC01BF
:1054400001C06D9341505040E0F70895F894FFCFAC
:105450007C232C238D21F822F0228D218D21E9221D
:105460008D218D218D218D218D218D218D218D21CC
:105470008D218D218D218D218D218D218D218D21BC
:105480008D218D218D218D218D218D218D218D21AC
:105490008D218D218D218D218D218D218D218D219C
:1054A0008D218D218D218D218D218D218D218D218C
:1054B0008D218D21E322DA22C622AF22A1223E22B3
:0454C000DF21AC211B
:1054C40002012A002B0029000A01270028002600D7
:1054D40012012400250023000100003905200005E5
:1054E4000C0D10141100010420DF01E201EB01F3A3
:1054F40001FD0105020D021A0221022702360246AD
:1055040002540260026F027C0284028B029B02221C
:105514002A2B2C2E3A3B3C3D3E3F5B5D7C7F00803A
:105524009A45418E418F804545454949498E8F9022
:1055340092924F994F555559999A9B9C9D9E9F4184
:10554400494F55A5A5A6A7A8A9AAABACADAEAFB0C7
:10555400B1B2B3B4B5B6B7B8B9BABBBCBDBEBFC0BF
:10556400C1C2C3C4C5C6C7C8C9CACBCCCDCECFD0AF
:10557400D1D2D3D4D5D6D7D8D9DADBDCDDDEDFE09F
:10558400E1E2E3E4E5E6E7E8E9EAEBECEDEEEFF08F
:10559400F1F2F3F4F5F6F7F8F9FAFBFCFDFEFF4F30
:1055A4004B004449534B5F45525200494E545F45AA
:1055B4005252004E4F545F5245414459004E4F5F82
:1055C40046494C45004E4F5F5041544800494E56A1
:1055D400414C49445F4E414D450044454E49454484
:1055E40000455849535400494E56414C49445F4F75
:1055F400424A4543540057524954455F50524F5410
:10560400454354454400494E56414C49445F445235
:10561400495645004E4F545F454E41424C45440067
:105624004E4F5F46494C455F53595354454D004DC9
:105634004B46535F41424F525445440054494D45F3
:105644004F5554004C4F434B4544004E4F545F4517
:105654004E4F5547485F434F524500544F4F5F4D9F
:10566400414E595F4F50454E5F46494C45530046A5
:105674004154333200222A2B2C3A3B3C3D3E3F5BC3
:045684005D7C7F00CA
:00000001FF
